{
  "contractName": "SportBets",
  "abi": [
    {
      "constant": true,
      "inputs": [
        {
          "name": "_gameId",
          "type": "uint256"
        }
      ],
      "name": "getBetsCount",
      "outputs": [
        {
          "name": "",
          "type": "uint256"
        }
      ],
      "payable": false,
      "stateMutability": "view",
      "type": "function"
    },
    {
      "constant": true,
      "inputs": [
        {
          "name": "_id",
          "type": "uint256"
        }
      ],
      "name": "getGameDetails",
      "outputs": [
        {
          "name": "teamIds_",
          "type": "uint256[]"
        },
        {
          "name": "payoutLock_",
          "type": "bool"
        },
        {
          "name": "wasRefund_",
          "type": "bool"
        },
        {
          "name": "endDate_",
          "type": "uint256"
        },
        {
          "name": "minBetAmount_",
          "type": "uint256"
        },
        {
          "name": "allowDrawBets_",
          "type": "bool"
        }
      ],
      "payable": false,
      "stateMutability": "view",
      "type": "function"
    },
    {
      "constant": true,
      "inputs": [
        {
          "name": "_gameId",
          "type": "uint256"
        }
      ],
      "name": "getBets",
      "outputs": [
        {
          "name": "",
          "type": "uint256[]"
        },
        {
          "name": "",
          "type": "address[]"
        },
        {
          "name": "",
          "type": "uint256[]"
        }
      ],
      "payable": false,
      "stateMutability": "view",
      "type": "function"
    },
    {
      "constant": true,
      "inputs": [],
      "name": "getGamesLen",
      "outputs": [
        {
          "name": "",
          "type": "uint256"
        }
      ],
      "payable": false,
      "stateMutability": "view",
      "type": "function"
    },
    {
      "constant": false,
      "inputs": [
        {
          "name": "_id",
          "type": "uint256"
        }
      ],
      "name": "deleteGame",
      "outputs": [],
      "payable": false,
      "stateMutability": "nonpayable",
      "type": "function"
    },
    {
      "constant": false,
      "inputs": [
        {
          "name": "_id",
          "type": "uint256"
        }
      ],
      "name": "refund",
      "outputs": [],
      "payable": false,
      "stateMutability": "nonpayable",
      "type": "function"
    },
    {
      "constant": true,
      "inputs": [
        {
          "name": "_gameId",
          "type": "uint256"
        },
        {
          "name": "bidders",
          "type": "address[]"
        },
        {
          "name": "amounts",
          "type": "uint256[]"
        }
      ],
      "name": "fillBets",
      "outputs": [
        {
          "name": "",
          "type": "address[]"
        },
        {
          "name": "",
          "type": "uint256[]"
        }
      ],
      "payable": false,
      "stateMutability": "view",
      "type": "function"
    },
    {
      "constant": false,
      "inputs": [
        {
          "name": "_gameId",
          "type": "uint256"
        },
        {
          "name": "_teamId",
          "type": "uint256"
        },
        {
          "name": "_isDraw",
          "type": "bool"
        }
      ],
      "name": "bet",
      "outputs": [],
      "payable": true,
      "stateMutability": "payable",
      "type": "function"
    },
    {
      "constant": false,
      "inputs": [
        {
          "name": "_gameId",
          "type": "uint256"
        },
        {
          "name": "_drawBetToPayouts",
          "type": "uint256[]"
        },
        {
          "name": "_payoutAmount",
          "type": "uint256[]"
        }
      ],
      "name": "payout",
      "outputs": [],
      "payable": false,
      "stateMutability": "nonpayable",
      "type": "function"
    },
    {
      "constant": false,
      "inputs": [],
      "name": "changeOwner",
      "outputs": [
        {
          "name": "",
          "type": "address"
        }
      ],
      "payable": false,
      "stateMutability": "nonpayable",
      "type": "function"
    },
    {
      "constant": true,
      "inputs": [
        {
          "name": "_startIndex",
          "type": "uint256"
        },
        {
          "name": "_filterSportType",
          "type": "bytes32"
        },
        {
          "name": "_filterStartDateBefore",
          "type": "uint256"
        },
        {
          "name": "_allowDraw",
          "type": "bool"
        }
      ],
      "name": "iterateGames",
      "outputs": [
        {
          "name": "",
          "type": "uint256[]"
        },
        {
          "name": "",
          "type": "uint256[]"
        },
        {
          "name": "",
          "type": "bytes32[]"
        }
      ],
      "payable": false,
      "stateMutability": "view",
      "type": "function"
    },
    {
      "constant": false,
      "inputs": [
        {
          "name": "_sportType",
          "type": "bytes32"
        },
        {
          "name": "_teamIds",
          "type": "uint256[]"
        },
        {
          "name": "_startDate",
          "type": "uint256"
        },
        {
          "name": "_endDate",
          "type": "uint256"
        },
        {
          "name": "_allowDraw",
          "type": "bool"
        },
        {
          "name": "_minBetAmount",
          "type": "uint256"
        },
        {
          "name": "_description",
          "type": "bytes32"
        },
        {
          "name": "_externalId",
          "type": "uint256"
        }
      ],
      "name": "addGame",
      "outputs": [],
      "payable": false,
      "stateMutability": "nonpayable",
      "type": "function"
    },
    {
      "constant": true,
      "inputs": [],
      "name": "owner",
      "outputs": [
        {
          "name": "",
          "type": "address"
        }
      ],
      "payable": false,
      "stateMutability": "view",
      "type": "function"
    },
    {
      "constant": true,
      "inputs": [
        {
          "name": "_gameId",
          "type": "uint256"
        }
      ],
      "name": "getBetRate",
      "outputs": [
        {
          "name": "",
          "type": "uint256[]"
        },
        {
          "name": "",
          "type": "uint256[]"
        }
      ],
      "payable": false,
      "stateMutability": "view",
      "type": "function"
    },
    {
      "constant": true,
      "inputs": [
        {
          "name": "",
          "type": "uint256"
        }
      ],
      "name": "gameIds",
      "outputs": [
        {
          "name": "",
          "type": "uint256"
        }
      ],
      "payable": false,
      "stateMutability": "view",
      "type": "function"
    },
    {
      "inputs": [],
      "payable": true,
      "stateMutability": "payable",
      "type": "constructor"
    }
  ],
  "bytecode": "0x6060604052336000806101000a81548173ffffffffffffffffffffffffffffffffffffffff021916908373ffffffffffffffffffffffffffffffffffffffff1602179055506126b7806100536000396000f3006060604052600436106100db576000357c0100000000000000000000000000000000000000000000000000000000900463ffffffff16806305c4cb45146100e05780631b31abda146101175780631ccf6955146101be578063203e7060146102c6578063248a55a1146102ef578063278ecde1146103125780633aa89b151461033557806349d79a121461047557806359c38d5a146104a157806362a09477146105445780636571f7c21461059957806369f291fb146106c25780638da5cb5b14610765578063c0b3f4f1146107ba578063d82c13f01461087a575b600080fd5b34156100eb57600080fd5b61010160048080359060200190919050506108b1565b6040518082815260200191505060405180910390f35b341561012257600080fd5b610138600480803590602001909190505061096c565b6040518080602001871515151581526020018615151515815260200185815260200184815260200183151515158152602001828103825288818151815260200191508051906020019060200280838360005b838110156101a557808201518184015260208101905061018a565b5050505090500197505050505050505060405180910390f35b34156101c957600080fd5b6101df6004808035906020019091905050610a90565b60405180806020018060200180602001848103845287818151815260200191508051906020019060200280838360005b8381101561022a57808201518184015260208101905061020f565b50505050905001848103835286818151815260200191508051906020019060200280838360005b8381101561026c578082015181840152602081019050610251565b50505050905001848103825285818151815260200191508051906020019060200280838360005b838110156102ae578082015181840152602081019050610293565b50505050905001965050505050505060405180910390f35b34156102d157600080fd5b6102d9610c48565b6040518082815260200191505060405180910390f35b34156102fa57600080fd5b6103106004808035906020019091905050610c55565b005b341561031d57600080fd5b6103336004808035906020019091905050610e4f565b005b341561034057600080fd5b6103d6600480803590602001909190803590602001908201803590602001908080602002602001604051908101604052809392919081815260200183836020028082843782019150505050505091908035906020019082018035906020019080806020026020016040519081016040528093929190818152602001838360200280828437820191505050505050919050506111bc565b604051808060200180602001838103835285818151815260200191508051906020019060200280838360005b8381101561041d578082015181840152602081019050610402565b50505050905001838103825284818151815260200191508051906020019060200280838360005b8381101561045f578082015181840152602081019050610444565b5050505090500194505050505060405180910390f35b61049f6004808035906020019091908035906020019091908035151590602001909190505061152b565b005b34156104ac57600080fd5b610542600480803590602001909190803590602001908201803590602001908080602002602001604051908101604052809392919081815260200183836020028082843782019150505050505091908035906020019082018035906020019080806020026020016040519081016040528093929190818152602001838360200280828437820191505050505050919050506117d8565b005b341561054f57600080fd5b610557611c9d565b604051808273ffffffffffffffffffffffffffffffffffffffff1673ffffffffffffffffffffffffffffffffffffffff16815260200191505060405180910390f35b34156105a457600080fd5b6105db6004808035906020019091908035600019169060200190919080359060200190919080351515906020019091905050611d61565b60405180806020018060200180602001848103845287818151815260200191508051906020019060200280838360005b8381101561062657808201518184015260208101905061060b565b50505050905001848103835286818151815260200191508051906020019060200280838360005b8381101561066857808201518184015260208101905061064d565b50505050905001848103825285818151815260200191508051906020019060200280838360005b838110156106aa57808201518184015260208101905061068f565b50505050905001965050505050505060405180910390f35b34156106cd57600080fd5b61076360048080356000191690602001909190803590602001908201803590602001908080602002602001604051908101604052809392919081815260200183836020028082843782019150505050505091908035906020019091908035906020019091908035151590602001909190803590602001909190803560001916906020019091908035906020019091905050611fdb565b005b341561077057600080fd5b610778612191565b604051808273ffffffffffffffffffffffffffffffffffffffff1673ffffffffffffffffffffffffffffffffffffffff16815260200191505060405180910390f35b34156107c557600080fd5b6107db60048080359060200190919050506121b6565b604051808060200180602001838103835285818151815260200191508051906020019060200280838360005b83811015610822578082015181840152602081019050610807565b50505050905001838103825284818151815260200191508051906020019060200280838360005b83811015610864578082015181840152602081019050610849565b5050505090500194505050505060405180910390f35b341561088557600080fd5b61089b6004808035906020019091905050612488565b6040518082815260200191505060405180910390f35b600080600060016000858152602001908152602001600020600201805490509150600090505b600160008581526020019081526020016000206000018054905081101561096257600160008581526020019081526020016000206001016000600160008781526020019081526020016000206000018381548110151561093357fe5b9060005260206000209001548152602001908152602001600020805490508201915080806001019150506108d7565b8192505050919050565b6109746124ac565b6000806000806000600160008881526020019081526020016000206000018054806020026020016040519081016040528092919081815260200182805480156109dc57602002820191906000526020600020905b8154815260200190600101908083116109c8575b505050505095506001600088815260200190815260200160002060030160009054906101000a900460ff1694506001600088815260200190815260200160002060030160019054906101000a900460ff169350600160008881526020019081526020016000206005015492506001600088815260200190815260200160002060090154915060016000888152602001908152602001600020600a0160009054906101000a900460ff16905091939550919395565b610a986124ac565b610aa06124c0565b610aa86124ac565b6000610ab26124ac565b6000610abc6124c0565b610ac46124ac565b600160008a8152602001908152602001600020600201805490509450600160008a815260200190815260200160002060000180549050604051805910610b075750595b90808252806020026020018201604052509350600092505b600160008a815260200190815260200160002060000180549050831015610bde57600160008a81526020019081526020016000206001016000600160008c815260200190815260200160002060000185815481101515610b7b57fe5b9060005260206000209001548152602001908152602001600020805490508484815181101515610ba757fe5b90602001906020020181815250508383815181101515610bc357fe5b90602001906020020151850194508280600101935050610b1f565b84604051805910610bec5750595b9080825280602002602001820160405250915084604051805910610c0d5750595b90808252806020026020018201604052509050610c2b8983836111bc565b809250819350505083828297509750975050505050509193909250565b6000600280549050905090565b60008060009054906101000a900473ffffffffffffffffffffffffffffffffffffffff1673ffffffffffffffffffffffffffffffffffffffff163373ffffffffffffffffffffffffffffffffffffffff16141515610cb257600080fd5b6001600083815260200190815260200160002060030160009054906101000a900460ff1680610d0157506001600083815260200190815260200160002060030160019054906101000a900460ff165b1515610d0c57600080fd5b6001600083815260200190815260200160002060008082016000610d3091906124d4565b600282016000610d4091906124f5565b6003820160006101000a81549060ff02191690556003820160016101000a81549060ff0219169055600482016000905560058201600090556006820160009055600782016000905560088201600090556009820160009055600a820160006101000a81549060ff02191690555050600090505b600280549050811015610e4b5781600282815481101515610dd057fe5b9060005260206000209001541415610e3e576002600160028054905003815481101515610df957fe5b906000526020600020900154600282815481101515610e1457fe5b9060005260206000209001819055506002805480919060019003610e389190612519565b50610e4b565b8080600101915050610db3565b5050565b60008060008060009054906101000a900473ffffffffffffffffffffffffffffffffffffffff1673ffffffffffffffffffffffffffffffffffffffff163373ffffffffffffffffffffffffffffffffffffffff16141515610eaf57600080fd5b6001600085815260200190815260200160002060030160019054906101000a900460ff16158015610f0157506001600085815260200190815260200160002060030160009054906101000a900460ff16155b1515610f0c57600080fd5b600180600086815260200190815260200160002060030160016101000a81548160ff021916908315150217905550600092505b6001600085815260200190815260200160002060020180549050831015611035576001600085815260200190815260200160002060020183815481101515610f8357fe5b906000526020600020906002020160000160009054906101000a900473ffffffffffffffffffffffffffffffffffffffff1673ffffffffffffffffffffffffffffffffffffffff166108fc6001600087815260200190815260200160002060020185815481101515610ff157fe5b9060005260206000209060020201600101549081150290604051600060405180830381858888f19350505050151561102857600080fd5b8280600101935050610f3f565b600092505b60016000858152602001908152602001600020600001805490508310156111b657600160008581526020019081526020016000206000018381548110151561107e57fe5b9060005260206000209001549150600090505b60016000858152602001908152602001600020600001805490508110156111a957600160008581526020019081526020016000206001016000838152602001908152602001600020818154811015156110e657fe5b906000526020600020906002020160000160009054906101000a900473ffffffffffffffffffffffffffffffffffffffff1673ffffffffffffffffffffffffffffffffffffffff166108fc6001600087815260200190815260200160002060010160008581526020019081526020016000208381548110151561116557fe5b9060005260206000209060020201600101549081150290604051600060405180830381858888f19350505050151561119c57600080fd5b8080600101915050611091565b828060010193505061103a565b50505050565b6111c46124c0565b6111cc6124ac565b6000806000809250600091505b60016000898152602001908152602001600020600001805490508210156113ef57600090505b600160008981526020019081526020016000206001016000600160008b81526020019081526020016000206000018481548110151561123a57fe5b9060005260206000209001548152602001908152602001600020805490508110156113e257600160008981526020019081526020016000206001016000600160008b81526020019081526020016000206000018481548110151561129a57fe5b9060005260206000209001548152602001908152602001600020818154811015156112c157fe5b906000526020600020906002020160000160009054906101000a900473ffffffffffffffffffffffffffffffffffffffff16878481518110151561130157fe5b9060200190602002019073ffffffffffffffffffffffffffffffffffffffff16908173ffffffffffffffffffffffffffffffffffffffff1681525050600160008981526020019081526020016000206001016000600160008b81526020019081526020016000206000018481548110151561137857fe5b90600052602060002090015481526020019081526020016000208181548110151561139f57fe5b90600052602060002090600202016001015486848151811015156113bf57fe5b9060200190602002018181525050828060010193505080806001019150506111ff565b81806001019250506111d9565b600091505b600160008981526020019081526020016000206002018054905082101561151a57600160008981526020019081526020016000206002018281548110151561143857fe5b906000526020600020906002020160000160009054906101000a900473ffffffffffffffffffffffffffffffffffffffff16878481518110151561147857fe5b9060200190602002019073ffffffffffffffffffffffffffffffffffffffff16908173ffffffffffffffffffffffffffffffffffffffff168152505060016000898152602001908152602001600020600201828154811015156114d757fe5b90600052602060002090600202016001015486848151811015156114f757fe5b9060200190602002018181525050828060010193505081806001019250506113f4565b868694509450505050935093915050565b6000806001600086815260200190815260200160002060090154341015801561157557506001600086815260200190815260200160002060030160019054906101000a900460ff16155b151561158057600080fd5b82156115b65760016000868152602001908152602001600020600a0160009054906101000a900460ff1615156115b557600080fd5b5b82151561163c5760009150600090505b600160008681526020019081526020016000206000018054905081101561162f5783600160008781526020019081526020016000206000018281548110151561160b57fe5b906000526020600020900154141561162257600191505b80806001019150506115c6565b81151561163b57600080fd5b5b82156117035760016000868152602001908152602001600020600201805480600101828161166a9190612545565b9160005260206000209060020201600060408051908101604052803373ffffffffffffffffffffffffffffffffffffffff16815260200134815250909190915060008201518160000160006101000a81548173ffffffffffffffffffffffffffffffffffffffff021916908373ffffffffffffffffffffffffffffffffffffffff160217905550602082015181600101555050506117d1565b600160008681526020019081526020016000206001016000858152602001908152602001600020805480600101828161173c9190612545565b9160005260206000209060020201600060408051908101604052803373ffffffffffffffffffffffffffffffffffffffff16815260200134815250909190915060008201518160000160006101000a81548173ffffffffffffffffffffffffffffffffffffffff021916908373ffffffffffffffffffffffffffffffffffffffff160217905550602082015181600101555050505b5050505050565b60008060006117e5612577565b6000809054906101000a900473ffffffffffffffffffffffffffffffffffffffff1673ffffffffffffffffffffffffffffffffffffffff163373ffffffffffffffffffffffffffffffffffffffff1614151561184057600080fd5b6001600088815260200190815260200160002060030160009054906101000a900460ff1615801561189257506001600088815260200190815260200160002060030160019054906101000a900460ff16155b151561189d57600080fd5b600180600089815260200190815260200160002060030160006101000a81548160ff021916908315150217905550600093505b85518410156119915760016000888152602001908152602001600020600201848154811015156118fc57fe5b906000526020600020906002020160000160009054906101000a900473ffffffffffffffffffffffffffffffffffffffff1673ffffffffffffffffffffffffffffffffffffffff166108fc878681518110151561195557fe5b906020019060200201519081150290604051600060405180830381858888f19350505050151561198457600080fd5b83806001019450506118d0565b6000925060009150600160008881526020019081526020016000206001016000600160008a8152602001908152602001600020600001858154811015156119d457fe5b9060005260206000209001548152602001908152602001600020805480602002602001604051908101604052809291908181526020016000905b82821015611aa057838290600052602060002090600202016040805190810160405290816000820160009054906101000a900473ffffffffffffffffffffffffffffffffffffffff1673ffffffffffffffffffffffffffffffffffffffff1673ffffffffffffffffffffffffffffffffffffffff16815260200160018201548152505081526020019060010190611a0e565b505050509050600093505b8451841015611c9457818151148015611ac75750600185510384105b15611c0d57600091508280600101935050600160008881526020019081526020016000206000018054905083101515611aff57600080fd5b600160008881526020019081526020016000206001016000600160008a815260200190815260200160002060000185815481101515611b3a57fe5b9060005260206000209001548152602001908152602001600020805480602002602001604051908101604052809291908181526020016000905b82821015611c0657838290600052602060002090600202016040805190810160405290816000820160009054906101000a900473ffffffffffffffffffffffffffffffffffffffff1673ffffffffffffffffffffffffffffffffffffffff1673ffffffffffffffffffffffffffffffffffffffff16815260200160018201548152505081526020019060010190611b74565b5050505090505b8082815181101515611c1b57fe5b906020019060200201516000015173ffffffffffffffffffffffffffffffffffffffff166108fc8686815181101515611c5057fe5b906020019060200201519081150290604051600060405180830381858888f193505050501515611c7f57600080fd5b81806001019250508380600101945050611aab565b50505050505050565b60008060009054906101000a900473ffffffffffffffffffffffffffffffffffffffff1673ffffffffffffffffffffffffffffffffffffffff163373ffffffffffffffffffffffffffffffffffffffff16141515611cfa57600080fd5b336000806101000a81548173ffffffffffffffffffffffffffffffffffffffff021916908373ffffffffffffffffffffffffffffffffffffffff1602179055506000809054906101000a900473ffffffffffffffffffffffffffffffffffffffff16905090565b611d696124ac565b611d716124ac565b611d7961258b565b600080600080611d876124ac565b611d8f6124ac565b611d9761258b565b600096508d95505b600280549050861015611e4357600a871415611dba57611e43565b60016000600288815481101515611dcd57fe5b906000526020600020900154815260200190815260200160002094508b856004015411158015611e0857508460070154600019168d60001916145b8015611e28575084600a0160009054906101000a900460ff1615158b1515145b15611e365786806001019750505b8580600101965050611d9f565b8693506000965083604051805910611e585750595b9080825280602002602001820160405250925083604051805910611e795750595b9080825280602002602001820160405250915083604051805910611e9a5750595b908082528060200260200182016040525090508d95505b600280549050861015611fc15783871415611ecb57611fc1565b60016000600288815481101515611ede57fe5b906000526020600020900154815260200190815260200160002094508b856004015411158015611f1957508460070154600019168d60001916145b8015611f39575084600a0160009054906101000a900460ff1615158b1515145b15611fb45784600801548388815181101515611f5157fe5b906020019060200201818152505084600401548288815181101515611f7257fe5b906020019060200201818152505084600601548188815181101515611f9357fe5b90602001906020020190600019169081600019168152505086806001019750505b8580600101965050611eb1565b828282995099509950505050505050509450945094915050565b6000809054906101000a900473ffffffffffffffffffffffffffffffffffffffff1673ffffffffffffffffffffffffffffffffffffffff163373ffffffffffffffffffffffffffffffffffffffff1614151561203657600080fd5b6000600160008381526020019081526020016000206008015414151561205b57600080fd5b8660016000838152602001908152602001600020600001908051906020019061208592919061259f565b5085600160008381526020019081526020016000206004018190555084600160008381526020019081526020016000206005018190555081600160008381526020019081526020016000206006018160001916905550876001600083815260200190815260200160002060070181600019169055508260016000838152602001908152602001600020600901819055508360016000838152602001908152602001600020600a0160006101000a81548160ff0219169083151502179055508060016000838152602001908152602001600020600801819055506002805480600101828161217291906125ec565b9160005260206000209001600083909190915055505050505050505050565b6000809054906101000a900473ffffffffffffffffffffffffffffffffffffffff1681565b6121be6124ac565b6121c66124ac565b60006121d06124ac565b6121d86124ac565b60008087600060016000838152602001908152602001600020600801541415151561220257600080fd5b600160008a81526020019081526020016000206000018054905095506001860160405180591061222f5750595b90808252806020026020018201604052509450600186016040518059106122535750595b908082528060200260200182016040525093506000848781518110151561227657fe5b9060200190602002018181525050600092505b858310156123c357600160008a8152602001908152602001600020600001838154811015156122b457fe5b90600052602060002090015484848151811015156122ce57fe5b9060200190602002018181525050600091505b600160008a81526020019081526020016000206001016000858581518110151561230757fe5b906020019060200201518152602001908152602001600020805490508210156123b657600160008a81526020019081526020016000206001016000858581518110151561235057fe5b9060200190602002015181526020019081526020016000208281548110151561237557fe5b906000526020600020906002020160010154858481518110151561239557fe5b906020019060200201818151019150818152505081806001019250506122e1565b8280600101935050612289565b600160008a8152602001908152602001600020600a0160009054906101000a900460ff161561247757600092505b600160008a81526020019081526020016000206002018054905083101561247657600160008a81526020019081526020016000206002018381548110151561243557fe5b906000526020600020906002020160010154858781518110151561245557fe5b906020019060200201818151019150818152505082806001019350506123f1565b5b838597509750505050505050915091565b60028181548110151561249757fe5b90600052602060002090016000915090505481565b602060405190810160405280600081525090565b602060405190810160405280600081525090565b50805460008255906000526020600020908101906124f29190612618565b50565b5080546000825560020290600052602060002090810190612516919061263d565b50565b8154818355818115116125405781836000526020600020918201910161253f9190612618565b5b505050565b81548183558181151161257257600202816002028360005260206000209182019101612571919061263d565b5b505050565b602060405190810160405280600081525090565b602060405190810160405280600081525090565b8280548282559060005260206000209081019282156125db579160200282015b828111156125da5782518255916020019190600101906125bf565b5b5090506125e89190612618565b5090565b815481835581811511612613578183600052602060002091820191016126129190612618565b5b505050565b61263a91905b8082111561263657600081600090555060010161261e565b5090565b90565b61268891905b8082111561268457600080820160006101000a81549073ffffffffffffffffffffffffffffffffffffffff0219169055600182016000905550600201612643565b5090565b905600a165627a7a72305820c290eff4ebc918ba1e64f4abe1f9722ab28865f0cf51c7289771b4fc7ff617120029",
  "source": "pragma solidity ^0.4.0;\n\n\n/**\n * vitaliy.kuzmich[at]gmail.com\n */\ncontract SportBets {\n\n  function SportBets() payable public {\n    owner = msg.sender;\n  }\n  modifier isOwner{\n    require(msg.sender == owner);\n    _;\n  }\n  modifier gameExists(uint _gameId){\n\n    require(gamesMap[_gameId].externalId != 0);\n    _;\n  }\n\n  struct Bet {\n    address addr;\n    uint amount;\n  }\n\n\n  struct Game {\n    uint[] teamIds;\n    mapping(uint => Bet[]) bets;\n\n    //game status\n    Bet[] drawBets;\n    bool payoutLock;\n    bool wasRefund;\n    //end game status\n\n    uint startDate;\n    uint endDate;\n\n    bytes32 description;\n    bytes32 sportType;\n    uint externalId;\n\n    uint minBetAmount;\n    bool allowDrawBets;\n\n  }\n\n  address public owner;\n\n\n  mapping(uint => Game) gamesMap;\n\n  uint[] public gameIds;\n\n  function changeOwner() public isOwner returns (address) {\n    owner = msg.sender;\n    return owner;\n  }\n\n  /**\n  * Calculating done externally because of lack of decimal arithmetics. It makes sure that payments was not done before.\n  *\n  */\n  function payout(uint _gameId, uint[] _drawBetToPayouts, uint[] _payoutAmount) isOwner public {\n\n    require(!gamesMap[_gameId].payoutLock\n   // && now > gamesMap[_gameId].endDate\n    && !gamesMap[_gameId].wasRefund);\n\n    gamesMap[_gameId].payoutLock = true;\n\n    for (uint i = 0; i < _drawBetToPayouts.length; i++) {\n      gamesMap[_gameId].drawBets[i].addr.transfer(_drawBetToPayouts[i]);\n    }\n\n\n    uint teamIdIndex = 0;\n    uint betsIndex = 0;\n    Bet[] memory currentBets = gamesMap[_gameId].bets[gamesMap[_gameId].teamIds[teamIdIndex]];\n    //payout the rest bidders\n\n    for (i = 0; i < _payoutAmount.length; i++) {\n\n      if (currentBets.length == betsIndex && i < _payoutAmount.length - 1) {\n        betsIndex = 0;\n        teamIdIndex++;\n        require(teamIdIndex < gamesMap[_gameId].teamIds.length);\n        currentBets = gamesMap[_gameId].bets[gamesMap[_gameId].teamIds[teamIdIndex]];\n      }\n\n      currentBets[betsIndex].addr.transfer(_payoutAmount[i]);\n      betsIndex++;\n\n\n    }\n\n\n  }\n  /**\n  putting money on game/team/draw\n   */\n  function bet(uint _gameId, uint _teamId, bool _isDraw) payable public {\n    require(msg.value >= gamesMap[_gameId].minBetAmount &&\n      // now < gamesMap[_gameId].startDate &&\n      !gamesMap[_gameId].wasRefund);\n\n    if (_isDraw) {\n      require(gamesMap[_gameId].allowDrawBets);\n    }\n\n    if (!_isDraw) {\n      var teamMatch = false;\n      for (uint i = 0; i < gamesMap[_gameId].teamIds.length; i++) {\n        if (gamesMap[_gameId].teamIds[i] == _teamId) {\n          teamMatch = true;\n        }\n      }\n      require(teamMatch);\n    }\n\n    if (_isDraw) {\n      gamesMap[_gameId].drawBets.push(Bet({\n        addr : msg.sender,\n        amount : msg.value\n        }));\n    }\n    else {\n      gamesMap[_gameId].bets[_teamId].push(Bet({\n        addr : msg.sender,\n        amount : msg.value\n        }));\n    }\n  }\n\n\n  /**\nreturns teamId, betAmount, latestIndex - draw bets\n*/\n  function getBetRate(uint _gameId) gameExists(_gameId) public view returns (uint[], uint[]) {\n\n    uint size = gamesMap[_gameId].teamIds.length;\n    uint[] memory resultBetsRes = new uint[](size + 1);\n    uint[] memory teamIdsRes = new uint[](size + 1);\n    teamIdsRes[size] = 0;\n\n    for (uint i = 0; i < size; i++) {\n      teamIdsRes[i] = gamesMap[_gameId].teamIds[i];\n      for (uint j = 0; j < gamesMap[_gameId].bets[teamIdsRes[i]].length; j++) {\n        resultBetsRes[i] += gamesMap[_gameId].bets[teamIdsRes[i]][j].amount;\n      }\n    }\n    if (gamesMap[_gameId].allowDrawBets) {\n      for (i = 0; i < gamesMap[_gameId].drawBets.length; i++) {\n        resultBetsRes[size] += gamesMap[_gameId].drawBets[i].amount;\n      }\n    }\n\n    return (teamIdsRes, resultBetsRes);\n  }\n  /**\n  returns all bids\n   */\n  function getBets(uint _gameId) public view returns (uint[], address[], uint[]) {\n\n    uint betsSize = gamesMap[_gameId].drawBets.length;\n    uint[] memory betsShiftIndex = new uint[](gamesMap[_gameId].teamIds.length);\n\n    for (uint i = 0; i < gamesMap[_gameId].teamIds.length; i++) {\n      betsShiftIndex[i] = gamesMap[_gameId].bets[gamesMap[_gameId].teamIds[i]].length;\n      betsSize += betsShiftIndex[i];\n    }\n    //betsShiftIndex[gamesMap[_gameId].teamIds.length] = betsSize - gamesMap[_gameId].drawBets.length;\n\n    address[] memory bidders = new address[](betsSize);\n    uint[] memory amounts = new uint[](betsSize);\n\n    (bidders, amounts) = fillBets(_gameId, bidders, amounts);\n    return (betsShiftIndex, bidders, amounts);\n  }\n  /**\n  used internally in order to fill bets data\n   */\n  function fillBets(uint _gameId, address[] memory bidders, uint[] memory amounts) public view returns (address[], uint[]) {\n    uint counter = 0;\n    for (uint i = 0; i < gamesMap[_gameId].teamIds.length; i++) {\n      for (uint j = 0; j < gamesMap[_gameId].bets[gamesMap[_gameId].teamIds[i]].length; j++) {\n        bidders[counter] = gamesMap[_gameId].bets[gamesMap[_gameId].teamIds[i]][j].addr;\n        amounts[counter] = gamesMap[_gameId].bets[gamesMap[_gameId].teamIds[i]][j].amount;\n\n        counter++;\n      }\n    }\n    for (i = 0; i < gamesMap[_gameId].drawBets.length; i++) {\n      bidders[counter] = gamesMap[_gameId].drawBets[i].addr;\n      amounts[counter] = gamesMap[_gameId].drawBets[i].amount;\n\n      counter++;\n    }\n\n\n    return (bidders, amounts);\n\n  }\n\n  /**\n  returns total bets count\n   */\n  function getBetsCount(uint _gameId) public view returns (uint){\n    uint count = gamesMap[_gameId].drawBets.length;\n\n    for (uint i = 0; i < gamesMap[_gameId].teamIds.length; i++) {\n      count += gamesMap[_gameId].bets[gamesMap[_gameId].teamIds[i]].length;\n    }\n    return count;\n\n  }\n  /**\n\n  add new game\n   */\n\n  function addGame(\n    bytes32 _sportType,\n    uint[] _teamIds,\n    uint _startDate,\n    uint _endDate,\n    bool _allowDraw,\n    uint _minBetAmount,\n    bytes32 _description,\n    uint _externalId\n  ) public isOwner\n  {\n    require(gamesMap[_externalId].externalId == 0);\n\n    gamesMap[_externalId].teamIds = _teamIds;\n    gamesMap[_externalId].startDate = _startDate;\n    gamesMap[_externalId].endDate = _endDate;\n    gamesMap[_externalId].description = _description;\n    gamesMap[_externalId].sportType = _sportType;\n    gamesMap[_externalId].minBetAmount = _minBetAmount;\n    gamesMap[_externalId].allowDrawBets = _allowDraw;\n    gamesMap[_externalId].externalId = _externalId;\n\n    gameIds.push(_externalId);\n\n  }\n\n\n  /**\n   used by clients in order to iterate existing games\n   */\n\n  function iterateGames(uint _startIndex, bytes32 _filterSportType, uint _filterStartDateBefore, bool _allowDraw) public view returns (\n    uint[],\n    uint[],\n    bytes32[]\n  ){\n\n    uint j = 0;\n    for (uint i = _startIndex; i < gameIds.length; i++) {\n      if (j == 10) {\n        break;\n      }\n      Game storage game = gamesMap[gameIds[i]];\n      if (game.startDate <= _filterStartDateBefore\n      && _filterSportType == game.sportType\n      && _allowDraw == game.allowDrawBets) {\n        j++;\n      }\n    }\n    uint size = j;\n    j = 0;\n\n    uint[] memory ids = new uint[](size);\n    uint[]memory startDates = new uint[](size);\n    bytes32[] memory descr = new bytes32[](size);\n\n    for (i = _startIndex; i < gameIds.length; i++) {\n      if (j == size) {\n        break;\n      }\n      game = gamesMap[gameIds[i]];\n      if (game.startDate <= _filterStartDateBefore\n      && _filterSportType == game.sportType\n      && _allowDraw == game.allowDrawBets) {\n        ids[j] = game.externalId;\n        startDates[j] = game.startDate;\n        descr[j] = game.description;\n        j++;\n      }\n    }\n\n\n    return (ids, startDates, descr);\n\n  }\n\n  /**\n  returns additional details about game\n   */\n\n  function getGameDetails(uint _id) public view returns (\n    uint[] teamIds_,\n\n    bool payoutLock_,\n    bool wasRefund_,\n\n    uint endDate_,\n    uint minBetAmount_,\n\n    bool allowDrawBets_\n  ){\n    teamIds_ = gamesMap[_id].teamIds;\n\n    payoutLock_ = gamesMap[_id].payoutLock;\n    wasRefund_ = gamesMap[_id].wasRefund;\n\n    endDate_ = gamesMap[_id].endDate;\n    minBetAmount_ = gamesMap[_id].minBetAmount;\n\n    allowDrawBets_ = gamesMap[_id].allowDrawBets;\n\n  }\n\n  function getGamesLen() public view returns (uint){\n    return gameIds.length;\n\n  }\n\n  /**\n  delete game and it makes sure that payments were done\n   */\n  function deleteGame(uint _id) public isOwner {\n    require(gamesMap[_id].payoutLock || gamesMap[_id].wasRefund);\n    delete gamesMap[_id];\n    for (uint i = 0; i < gameIds.length; i++) {\n      if (gameIds[i] == _id) {\n        gameIds[i] = gameIds[gameIds.length - 1];\n        gameIds.length--;\n        break;\n      }\n    }\n\n  }\n  /**\n  In case game canceled, it makes sure that payments were NOT done before\n  */\n  function refund(uint _id) public isOwner {\n    require(!gamesMap[_id].wasRefund && !gamesMap[_id].payoutLock);\n    gamesMap[_id].wasRefund = true;\n    for (uint i = 0; i < gamesMap[_id].drawBets.length; i++) {\n      gamesMap[_id].drawBets[i].addr.transfer(gamesMap[_id].drawBets[i].amount);\n    }\n    for (i = 0; i < gamesMap[_id].teamIds.length; i++) {\n      uint teamI = gamesMap[_id].teamIds[i];\n      for (uint j = 0; j < gamesMap[_id].teamIds.length; j++) {\n        gamesMap[_id].bets[teamI][j].addr.transfer(gamesMap[_id].bets[teamI][j].amount);\n      }\n    }\n\n\n  }\n\n\n}\n",
  "sourcePath": "/home/v/WebstormProjects/bets/contracts/SportBets.sol",
  "compiler": {
    "name": "solc",
    "version": "0.4.18+commit.9cf6e910.Emscripten.clang"
  },
  "schemaVersion": "1.0.1",
  "updatedAt": "2017-12-18T09:11:39.164Z"
}