{
  "contractName": "SportBets",
  "abi": [
    {
      "constant": true,
      "inputs": [
        {
          "name": "_gameId",
          "type": "uint256"
        }
      ],
      "name": "getBetsCount",
      "outputs": [
        {
          "name": "",
          "type": "uint256"
        }
      ],
      "payable": false,
      "stateMutability": "view",
      "type": "function"
    },
    {
      "constant": true,
      "inputs": [
        {
          "name": "_id",
          "type": "uint256"
        }
      ],
      "name": "getGameDetails",
      "outputs": [
        {
          "name": "teamIds_",
          "type": "uint256[]"
        },
        {
          "name": "payoutLock_",
          "type": "bool"
        },
        {
          "name": "wasRefund_",
          "type": "bool"
        },
        {
          "name": "endDate_",
          "type": "uint256"
        },
        {
          "name": "minBetAmount_",
          "type": "uint256"
        },
        {
          "name": "allowDrawBets_",
          "type": "bool"
        }
      ],
      "payable": false,
      "stateMutability": "view",
      "type": "function"
    },
    {
      "constant": true,
      "inputs": [
        {
          "name": "_gameId",
          "type": "uint256"
        }
      ],
      "name": "getBets",
      "outputs": [
        {
          "name": "",
          "type": "uint256[]"
        },
        {
          "name": "",
          "type": "address[]"
        },
        {
          "name": "",
          "type": "uint256[]"
        }
      ],
      "payable": false,
      "stateMutability": "view",
      "type": "function"
    },
    {
      "constant": true,
      "inputs": [],
      "name": "getGamesLen",
      "outputs": [
        {
          "name": "",
          "type": "uint256"
        }
      ],
      "payable": false,
      "stateMutability": "view",
      "type": "function"
    },
    {
      "constant": false,
      "inputs": [
        {
          "name": "_id",
          "type": "uint256"
        }
      ],
      "name": "deleteGame",
      "outputs": [],
      "payable": false,
      "stateMutability": "nonpayable",
      "type": "function"
    },
    {
      "constant": false,
      "inputs": [
        {
          "name": "_id",
          "type": "uint256"
        }
      ],
      "name": "refund",
      "outputs": [],
      "payable": false,
      "stateMutability": "nonpayable",
      "type": "function"
    },
    {
      "constant": true,
      "inputs": [
        {
          "name": "_gameId",
          "type": "uint256"
        },
        {
          "name": "bidders",
          "type": "address[]"
        },
        {
          "name": "amounts",
          "type": "uint256[]"
        }
      ],
      "name": "fillBets",
      "outputs": [
        {
          "name": "",
          "type": "address[]"
        },
        {
          "name": "",
          "type": "uint256[]"
        }
      ],
      "payable": false,
      "stateMutability": "view",
      "type": "function"
    },
    {
      "constant": false,
      "inputs": [
        {
          "name": "_gameId",
          "type": "uint256"
        },
        {
          "name": "_teamId",
          "type": "uint256"
        },
        {
          "name": "_isDraw",
          "type": "bool"
        }
      ],
      "name": "bet",
      "outputs": [],
      "payable": true,
      "stateMutability": "payable",
      "type": "function"
    },
    {
      "constant": false,
      "inputs": [],
      "name": "changeOwner",
      "outputs": [
        {
          "name": "",
          "type": "address"
        }
      ],
      "payable": false,
      "stateMutability": "nonpayable",
      "type": "function"
    },
    {
      "constant": true,
      "inputs": [
        {
          "name": "_startIndex",
          "type": "uint256"
        },
        {
          "name": "_filterSportType",
          "type": "bytes32"
        },
        {
          "name": "_filterStartDateBefore",
          "type": "uint256"
        },
        {
          "name": "_allowDraw",
          "type": "bool"
        }
      ],
      "name": "iterateGames",
      "outputs": [
        {
          "name": "",
          "type": "uint256[]"
        },
        {
          "name": "",
          "type": "uint256[]"
        },
        {
          "name": "",
          "type": "bytes32[]"
        }
      ],
      "payable": false,
      "stateMutability": "view",
      "type": "function"
    },
    {
      "constant": false,
      "inputs": [
        {
          "name": "_sportType",
          "type": "bytes32"
        },
        {
          "name": "_teamIds",
          "type": "uint256[]"
        },
        {
          "name": "_startDate",
          "type": "uint256"
        },
        {
          "name": "_endDate",
          "type": "uint256"
        },
        {
          "name": "_allowDraw",
          "type": "bool"
        },
        {
          "name": "_minBetAmount",
          "type": "uint256"
        },
        {
          "name": "_description",
          "type": "bytes32"
        },
        {
          "name": "_externalId",
          "type": "uint256"
        }
      ],
      "name": "addGame",
      "outputs": [],
      "payable": false,
      "stateMutability": "nonpayable",
      "type": "function"
    },
    {
      "constant": false,
      "inputs": [
        {
          "name": "_gameId",
          "type": "uint256"
        },
        {
          "name": "_drawBetToPayouts",
          "type": "uint256[]"
        },
        {
          "name": "_teamIdsLimits",
          "type": "uint256[]"
        },
        {
          "name": "_payoutAmount",
          "type": "uint256[]"
        }
      ],
      "name": "payout",
      "outputs": [],
      "payable": false,
      "stateMutability": "nonpayable",
      "type": "function"
    },
    {
      "constant": true,
      "inputs": [],
      "name": "owner",
      "outputs": [
        {
          "name": "",
          "type": "address"
        }
      ],
      "payable": false,
      "stateMutability": "view",
      "type": "function"
    },
    {
      "constant": true,
      "inputs": [
        {
          "name": "_gameId",
          "type": "uint256"
        }
      ],
      "name": "getBetRate",
      "outputs": [
        {
          "name": "",
          "type": "uint256[]"
        },
        {
          "name": "",
          "type": "uint256[]"
        }
      ],
      "payable": false,
      "stateMutability": "view",
      "type": "function"
    },
    {
      "constant": true,
      "inputs": [
        {
          "name": "",
          "type": "uint256"
        }
      ],
      "name": "gameIds",
      "outputs": [
        {
          "name": "",
          "type": "uint256"
        }
      ],
      "payable": false,
      "stateMutability": "view",
      "type": "function"
    },
    {
      "inputs": [],
      "payable": true,
      "stateMutability": "payable",
      "type": "constructor"
    }
  ],
  "bytecode": "0x6060604052336000806101000a81548173ffffffffffffffffffffffffffffffffffffffff021916908373ffffffffffffffffffffffffffffffffffffffff160217905550612550806100536000396000f3006060604052600436106100db576000357c0100000000000000000000000000000000000000000000000000000000900463ffffffff16806305c4cb45146100e05780631b31abda146101175780631ccf6955146101be578063203e7060146102c6578063248a55a1146102ef578063278ecde1146103125780633aa89b151461033557806349d79a121461047557806362a09477146104a15780636571f7c2146104f657806369f291fb1461061f5780637518c7ee146106c25780638da5cb5b146107a5578063c0b3f4f1146107fa578063d82c13f0146108ba575b600080fd5b34156100eb57600080fd5b61010160048080359060200190919050506108f1565b6040518082815260200191505060405180910390f35b341561012257600080fd5b61013860048080359060200190919050506109ac565b6040518080602001871515151581526020018615151515815260200185815260200184815260200183151515158152602001828103825288818151815260200191508051906020019060200280838360005b838110156101a557808201518184015260208101905061018a565b5050505090500197505050505050505060405180910390f35b34156101c957600080fd5b6101df6004808035906020019091905050610ad0565b60405180806020018060200180602001848103845287818151815260200191508051906020019060200280838360005b8381101561022a57808201518184015260208101905061020f565b50505050905001848103835286818151815260200191508051906020019060200280838360005b8381101561026c578082015181840152602081019050610251565b50505050905001848103825285818151815260200191508051906020019060200280838360005b838110156102ae578082015181840152602081019050610293565b50505050905001965050505050505060405180910390f35b34156102d157600080fd5b6102d9610c88565b6040518082815260200191505060405180910390f35b34156102fa57600080fd5b6103106004808035906020019091905050610c95565b005b341561031d57600080fd5b6103336004808035906020019091905050610e8f565b005b341561034057600080fd5b6103d6600480803590602001909190803590602001908201803590602001908080602002602001604051908101604052809392919081815260200183836020028082843782019150505050505091908035906020019082018035906020019080806020026020016040519081016040528093929190818152602001838360200280828437820191505050505050919050506111fc565b604051808060200180602001838103835285818151815260200191508051906020019060200280838360005b8381101561041d578082015181840152602081019050610402565b50505050905001838103825284818151815260200191508051906020019060200280838360005b8381101561045f578082015181840152602081019050610444565b5050505090500194505050505060405180910390f35b61049f6004808035906020019091908035906020019091908035151590602001909190505061156b565b005b34156104ac57600080fd5b6104b461181b565b604051808273ffffffffffffffffffffffffffffffffffffffff1673ffffffffffffffffffffffffffffffffffffffff16815260200191505060405180910390f35b341561050157600080fd5b61053860048080359060200190919080356000191690602001909190803590602001909190803515159060200190919050506118df565b60405180806020018060200180602001848103845287818151815260200191508051906020019060200280838360005b83811015610583578082015181840152602081019050610568565b50505050905001848103835286818151815260200191508051906020019060200280838360005b838110156105c55780820151818401526020810190506105aa565b50505050905001848103825285818151815260200191508051906020019060200280838360005b838110156106075780820151818401526020810190506105ec565b50505050905001965050505050505060405180910390f35b341561062a57600080fd5b6106c060048080356000191690602001909190803590602001908201803590602001908080602002602001604051908101604052809392919081815260200183836020028082843782019150505050505091908035906020019091908035906020019091908035151590602001909190803590602001909190803560001916906020019091908035906020019091905050611b59565b005b34156106cd57600080fd5b6107a36004808035906020019091908035906020019082018035906020019080806020026020016040519081016040528093929190818152602001838360200280828437820191505050505050919080359060200190820180359060200190808060200260200160405190810160405280939291908181526020018383602002808284378201915050505050509190803590602001908201803590602001908080602002602001604051908101604052809392919081815260200183836020028082843782019150505050505091905050611d0f565b005b34156107b057600080fd5b6107b861203e565b604051808273ffffffffffffffffffffffffffffffffffffffff1673ffffffffffffffffffffffffffffffffffffffff16815260200191505060405180910390f35b341561080557600080fd5b61081b6004808035906020019091905050612063565b604051808060200180602001838103835285818151815260200191508051906020019060200280838360005b83811015610862578082015181840152602081019050610847565b50505050905001838103825284818151815260200191508051906020019060200280838360005b838110156108a4578082015181840152602081019050610889565b5050505090500194505050505060405180910390f35b34156108c557600080fd5b6108db6004808035906020019091905050612335565b6040518082815260200191505060405180910390f35b600080600060016000858152602001908152602001600020600201805490509150600090505b60016000858152602001908152602001600020600001805490508110156109a257600160008581526020019081526020016000206001016000600160008781526020019081526020016000206000018381548110151561097357fe5b906000526020600020900154815260200190815260200160002080549050820191508080600101915050610917565b8192505050919050565b6109b4612359565b600080600080600060016000888152602001908152602001600020600001805480602002602001604051908101604052809291908181526020018280548015610a1c57602002820191906000526020600020905b815481526020019060010190808311610a08575b505050505095506001600088815260200190815260200160002060030160009054906101000a900460ff1694506001600088815260200190815260200160002060030160019054906101000a900460ff169350600160008881526020019081526020016000206005015492506001600088815260200190815260200160002060090154915060016000888152602001908152602001600020600a0160009054906101000a900460ff16905091939550919395565b610ad8612359565b610ae061236d565b610ae8612359565b6000610af2612359565b6000610afc61236d565b610b04612359565b600160008a8152602001908152602001600020600201805490509450600160008a815260200190815260200160002060000180549050604051805910610b475750595b90808252806020026020018201604052509350600092505b600160008a815260200190815260200160002060000180549050831015610c1e57600160008a81526020019081526020016000206001016000600160008c815260200190815260200160002060000185815481101515610bbb57fe5b9060005260206000209001548152602001908152602001600020805490508484815181101515610be757fe5b90602001906020020181815250508383815181101515610c0357fe5b90602001906020020151850194508280600101935050610b5f565b84604051805910610c2c5750595b9080825280602002602001820160405250915084604051805910610c4d5750595b90808252806020026020018201604052509050610c6b8983836111fc565b809250819350505083828297509750975050505050509193909250565b6000600280549050905090565b60008060009054906101000a900473ffffffffffffffffffffffffffffffffffffffff1673ffffffffffffffffffffffffffffffffffffffff163373ffffffffffffffffffffffffffffffffffffffff16141515610cf257600080fd5b6001600083815260200190815260200160002060030160009054906101000a900460ff1680610d4157506001600083815260200190815260200160002060030160019054906101000a900460ff165b1515610d4c57600080fd5b6001600083815260200190815260200160002060008082016000610d709190612381565b600282016000610d8091906123a2565b6003820160006101000a81549060ff02191690556003820160016101000a81549060ff0219169055600482016000905560058201600090556006820160009055600782016000905560088201600090556009820160009055600a820160006101000a81549060ff02191690555050600090505b600280549050811015610e8b5781600282815481101515610e1057fe5b9060005260206000209001541415610e7e576002600160028054905003815481101515610e3957fe5b906000526020600020900154600282815481101515610e5457fe5b9060005260206000209001819055506002805480919060019003610e7891906123c6565b50610e8b565b8080600101915050610df3565b5050565b60008060008060009054906101000a900473ffffffffffffffffffffffffffffffffffffffff1673ffffffffffffffffffffffffffffffffffffffff163373ffffffffffffffffffffffffffffffffffffffff16141515610eef57600080fd5b6001600085815260200190815260200160002060030160019054906101000a900460ff16158015610f4157506001600085815260200190815260200160002060030160009054906101000a900460ff16155b1515610f4c57600080fd5b600180600086815260200190815260200160002060030160016101000a81548160ff021916908315150217905550600092505b6001600085815260200190815260200160002060020180549050831015611075576001600085815260200190815260200160002060020183815481101515610fc357fe5b906000526020600020906002020160000160009054906101000a900473ffffffffffffffffffffffffffffffffffffffff1673ffffffffffffffffffffffffffffffffffffffff166108fc600160008781526020019081526020016000206002018581548110151561103157fe5b9060005260206000209060020201600101549081150290604051600060405180830381858888f19350505050151561106857600080fd5b8280600101935050610f7f565b600092505b60016000858152602001908152602001600020600001805490508310156111f65760016000858152602001908152602001600020600001838154811015156110be57fe5b9060005260206000209001549150600090505b60016000858152602001908152602001600020600001805490508110156111e9576001600085815260200190815260200160002060010160008381526020019081526020016000208181548110151561112657fe5b906000526020600020906002020160000160009054906101000a900473ffffffffffffffffffffffffffffffffffffffff1673ffffffffffffffffffffffffffffffffffffffff166108fc600160008781526020019081526020016000206001016000858152602001908152602001600020838154811015156111a557fe5b9060005260206000209060020201600101549081150290604051600060405180830381858888f1935050505015156111dc57600080fd5b80806001019150506110d1565b828060010193505061107a565b50505050565b61120461236d565b61120c612359565b6000806000809250600091505b600160008981526020019081526020016000206000018054905082101561142f57600090505b600160008981526020019081526020016000206001016000600160008b81526020019081526020016000206000018481548110151561127a57fe5b90600052602060002090015481526020019081526020016000208054905081101561142257600160008981526020019081526020016000206001016000600160008b8152602001908152602001600020600001848154811015156112da57fe5b90600052602060002090015481526020019081526020016000208181548110151561130157fe5b906000526020600020906002020160000160009054906101000a900473ffffffffffffffffffffffffffffffffffffffff16878481518110151561134157fe5b9060200190602002019073ffffffffffffffffffffffffffffffffffffffff16908173ffffffffffffffffffffffffffffffffffffffff1681525050600160008981526020019081526020016000206001016000600160008b8152602001908152602001600020600001848154811015156113b857fe5b9060005260206000209001548152602001908152602001600020818154811015156113df57fe5b90600052602060002090600202016001015486848151811015156113ff57fe5b90602001906020020181815250508280600101935050808060010191505061123f565b8180600101925050611219565b600091505b600160008981526020019081526020016000206002018054905082101561155a57600160008981526020019081526020016000206002018281548110151561147857fe5b906000526020600020906002020160000160009054906101000a900473ffffffffffffffffffffffffffffffffffffffff1687848151811015156114b857fe5b9060200190602002019073ffffffffffffffffffffffffffffffffffffffff16908173ffffffffffffffffffffffffffffffffffffffff1681525050600160008981526020019081526020016000206002018281548110151561151757fe5b906000526020600020906002020160010154868481518110151561153757fe5b906020019060200201818152505082806001019350508180600101925050611434565b868694509450505050935093915050565b600080600160008681526020019081526020016000206009015434101580156115b557506001600086815260200190815260200160002060030160019054906101000a900460ff16155b80156115be5750825b6115c95760016115ee565b60016000868152602001908152602001600020600a0160009054906101000a900460ff165b15156115f957600080fd5b82151561167f5760009150600090505b60016000868152602001908152602001600020600001805490508110156116725783600160008781526020019081526020016000206000018281548110151561164e57fe5b906000526020600020900154141561166557600191505b8080600101915050611609565b81151561167e57600080fd5b5b8215611746576001600086815260200190815260200160002060020180548060010182816116ad91906123f2565b9160005260206000209060020201600060408051908101604052803373ffffffffffffffffffffffffffffffffffffffff16815260200134815250909190915060008201518160000160006101000a81548173ffffffffffffffffffffffffffffffffffffffff021916908373ffffffffffffffffffffffffffffffffffffffff16021790555060208201518160010155505050611814565b600160008681526020019081526020016000206001016000858152602001908152602001600020805480600101828161177f91906123f2565b9160005260206000209060020201600060408051908101604052803373ffffffffffffffffffffffffffffffffffffffff16815260200134815250909190915060008201518160000160006101000a81548173ffffffffffffffffffffffffffffffffffffffff021916908373ffffffffffffffffffffffffffffffffffffffff160217905550602082015181600101555050505b5050505050565b60008060009054906101000a900473ffffffffffffffffffffffffffffffffffffffff1673ffffffffffffffffffffffffffffffffffffffff163373ffffffffffffffffffffffffffffffffffffffff1614151561187857600080fd5b336000806101000a81548173ffffffffffffffffffffffffffffffffffffffff021916908373ffffffffffffffffffffffffffffffffffffffff1602179055506000809054906101000a900473ffffffffffffffffffffffffffffffffffffffff16905090565b6118e7612359565b6118ef612359565b6118f7612424565b600080600080611905612359565b61190d612359565b611915612424565b600096508d95505b6002805490508610156119c157600a871415611938576119c1565b6001600060028881548110151561194b57fe5b906000526020600020900154815260200190815260200160002094508b85600401541115801561198657508460070154600019168d60001916145b80156119a6575084600a0160009054906101000a900460ff1615158b1515145b156119b45786806001019750505b858060010196505061191d565b86935060009650836040518059106119d65750595b90808252806020026020018201604052509250836040518059106119f75750595b9080825280602002602001820160405250915083604051805910611a185750595b908082528060200260200182016040525090508d95505b600280549050861015611b3f5783871415611a4957611b3f565b60016000600288815481101515611a5c57fe5b906000526020600020900154815260200190815260200160002094508b856004015411158015611a9757508460070154600019168d60001916145b8015611ab7575084600a0160009054906101000a900460ff1615158b1515145b15611b325784600801548388815181101515611acf57fe5b906020019060200201818152505084600401548288815181101515611af057fe5b906020019060200201818152505084600601548188815181101515611b1157fe5b90602001906020020190600019169081600019168152505086806001019750505b8580600101965050611a2f565b828282995099509950505050505050509450945094915050565b6000809054906101000a900473ffffffffffffffffffffffffffffffffffffffff1673ffffffffffffffffffffffffffffffffffffffff163373ffffffffffffffffffffffffffffffffffffffff16141515611bb457600080fd5b60006001600083815260200190815260200160002060080154141515611bd957600080fd5b86600160008381526020019081526020016000206000019080519060200190611c03929190612438565b5085600160008381526020019081526020016000206004018190555084600160008381526020019081526020016000206005018190555081600160008381526020019081526020016000206006018160001916905550876001600083815260200190815260200160002060070181600019169055508260016000838152602001908152602001600020600901819055508360016000838152602001908152602001600020600a0160006101000a81548160ff02191690831515021790555080600160008381526020019081526020016000206008018190555060028054806001018281611cf09190612485565b9160005260206000209001600083909190915055505050505050505050565b60008060008060009054906101000a900473ffffffffffffffffffffffffffffffffffffffff1673ffffffffffffffffffffffffffffffffffffffff163373ffffffffffffffffffffffffffffffffffffffff16141515611d6f57600080fd5b6001600088815260200190815260200160002060030160009054906101000a900460ff16158015611dc157506001600088815260200190815260200160002060030160019054906101000a900460ff16155b1515611dcc57600080fd5b600180600089815260200190815260200160002060030160006101000a81548160ff021916908315150217905550600092505b8551831015611ec0576001600088815260200190815260200160002060020183815481101515611e2b57fe5b906000526020600020906002020160000160009054906101000a900473ffffffffffffffffffffffffffffffffffffffff1673ffffffffffffffffffffffffffffffffffffffff166108fc8785815181101515611e8457fe5b906020019060200201519081150290604051600060405180830381858888f193505050501515611eb357600080fd5b8280600101935050611dff565b600092505b84518310156120355760008314611ef6578460018403815181101515611ee757fe5b90602001906020020151611ef9565b60005b91505b8483815181101515611f0a57fe5b9060200190602002015182101561202857600090505b6001600088815260200190815260200160002060010160008381526020019081526020016000208054905081101561201b5760016000888152602001908152602001600020600101600083815260200190815260200160002081815481101515611f8657fe5b906000526020600020906002020160000160009054906101000a900473ffffffffffffffffffffffffffffffffffffffff1673ffffffffffffffffffffffffffffffffffffffff166108fc8584815181101515611fdf57fe5b906020019060200201519081150290604051600060405180830381858888f19350505050151561200e57600080fd5b8080600101915050611f20565b8180600101925050611efc565b8280600101935050611ec5565b50505050505050565b6000809054906101000a900473ffffffffffffffffffffffffffffffffffffffff1681565b61206b612359565b612073612359565b600061207d612359565b612085612359565b6000808760006001600083815260200190815260200160002060080154141515156120af57600080fd5b600160008a8152602001908152602001600020600001805490509550600186016040518059106120dc5750595b90808252806020026020018201604052509450600186016040518059106121005750595b908082528060200260200182016040525093506000848781518110151561212357fe5b9060200190602002018181525050600092505b8583101561227057600160008a81526020019081526020016000206000018381548110151561216157fe5b906000526020600020900154848481518110151561217b57fe5b9060200190602002018181525050600091505b600160008a8152602001908152602001600020600101600085858151811015156121b457fe5b9060200190602002015181526020019081526020016000208054905082101561226357600160008a8152602001908152602001600020600101600085858151811015156121fd57fe5b9060200190602002015181526020019081526020016000208281548110151561222257fe5b906000526020600020906002020160010154858481518110151561224257fe5b9060200190602002018181510191508181525050818060010192505061218e565b8280600101935050612136565b600160008a8152602001908152602001600020600a0160009054906101000a900460ff161561232457600092505b600160008a81526020019081526020016000206002018054905083101561232357600160008a8152602001908152602001600020600201838154811015156122e257fe5b906000526020600020906002020160010154858781518110151561230257fe5b9060200190602002018181510191508181525050828060010193505061229e565b5b838597509750505050505050915091565b60028181548110151561234457fe5b90600052602060002090016000915090505481565b602060405190810160405280600081525090565b602060405190810160405280600081525090565b508054600082559060005260206000209081019061239f91906124b1565b50565b50805460008255600202906000526020600020908101906123c391906124d6565b50565b8154818355818115116123ed578183600052602060002091820191016123ec91906124b1565b5b505050565b81548183558181151161241f5760020281600202836000526020600020918201910161241e91906124d6565b5b505050565b602060405190810160405280600081525090565b828054828255906000526020600020908101928215612474579160200282015b82811115612473578251825591602001919060010190612458565b5b50905061248191906124b1565b5090565b8154818355818115116124ac578183600052602060002091820191016124ab91906124b1565b5b505050565b6124d391905b808211156124cf5760008160009055506001016124b7565b5090565b90565b61252191905b8082111561251d57600080820160006101000a81549073ffffffffffffffffffffffffffffffffffffffff02191690556001820160009055506002016124dc565b5090565b905600a165627a7a72305820e5a4e6b2e13a7e6dca7a35f889e57adc544fc8ed95dbefe754e40e18a30cb8bf0029",
  "source": "pragma solidity ^0.4.0;\n\n\n/**\n * vitaliy.kuzmich[at]gmail.com\n */\ncontract SportBets {\n\n  function SportBets() payable public {\n    owner = msg.sender;\n  }\n  modifier isOwner{\n    require(msg.sender == owner);\n    _;\n  }\n  modifier gameExists(uint _gameId){\n\n    require(gamesMap[_gameId].externalId != 0);\n    _;\n  }\n\n  struct Bet {\n    address addr;\n    uint amount;\n  }\n\n\n  struct Game {\n    uint[] teamIds;\n    mapping(uint => Bet[]) bets;\n\n    //game status\n    Bet[] drawBets;\n    bool payoutLock;\n    bool wasRefund;\n    //end game status\n\n    uint startDate;\n    uint endDate;\n\n    bytes32 description;\n    bytes32 sportType;\n    uint externalId;\n\n    uint minBetAmount;\n    bool allowDrawBets;\n\n  }\n\n  address public owner;\n\n\n  mapping(uint => Game) gamesMap;\n\n  uint[] public gameIds;\n\n  function changeOwner() public isOwner returns (address) {\n    owner = msg.sender;\n    return owner;\n  }\n\n  /**\n  * Calculating done externally because of lack of decimal arithmetics. It makes sure that payments was not done before.\n  *\n  */\n  function payout(uint _gameId, uint[] _drawBetToPayouts, uint[] _teamIdsLimits, uint[] _payoutAmount) isOwner public {\n\n    require(!gamesMap[_gameId].payoutLock\n    //&& now > gamesMap[_gameId].endDate\n    && !gamesMap[_gameId].wasRefund);\n\n    gamesMap[_gameId].payoutLock = true;\n    for (uint i = 0; i < _drawBetToPayouts.length; i++) {\n      gamesMap[_gameId].drawBets[i].addr.transfer(_drawBetToPayouts[i]);\n    }\n    //payout the rest bidders\n    for (i = 0; i < _teamIdsLimits.length; i++) {\n      for (uint j = i == 0 ? 0 : _teamIdsLimits[i - 1]; j < _teamIdsLimits[i]; j++) {\n        for (uint i1 = 0; i1 < gamesMap[_gameId].bets[j].length; i1++) {\n          gamesMap[_gameId].bets[j][i1].addr.transfer(_payoutAmount[j]);\n        }\n      }\n    }\n\n  }\n  /**\n  putting money on game/team/draw\n   */\n  function bet(uint _gameId, uint _teamId, bool _isDraw) payable public {\n    require(\n      msg.value >= gamesMap[_gameId].minBetAmount &&\n      // now < gamesMap[_gameId].startDate &&\n      !gamesMap[_gameId].wasRefund &&\n      _isDraw ? gamesMap[_gameId].allowDrawBets : true\n    );\n\n    if (!_isDraw) {\n      var teamMatch = false;\n      for (uint i = 0; i < gamesMap[_gameId].teamIds.length; i++) {\n        if (gamesMap[_gameId].teamIds[i] == _teamId) {\n          teamMatch = true;\n        }\n      }\n      require(teamMatch);\n    }\n\n    if (_isDraw) {\n      gamesMap[_gameId].drawBets.push(Bet({\n        addr : msg.sender,\n        amount : msg.value\n        }));\n    }\n    else {\n      gamesMap[_gameId].bets[_teamId].push(Bet({\n        addr : msg.sender,\n        amount : msg.value\n        }));\n    }\n  }\n\n\n  /**\nreturns teamId, betAmount, latestIndex - draw bets\n*/\n  function getBetRate(uint _gameId) gameExists(_gameId) public view returns (uint[], uint[]) {\n\n    uint size = gamesMap[_gameId].teamIds.length;\n    uint[] memory resultBetsRes = new uint[](size + 1);\n    uint[] memory teamIdsRes = new uint[](size + 1);\n    teamIdsRes[size] = 0;\n\n    for (uint i = 0; i < size; i++) {\n      teamIdsRes[i] = gamesMap[_gameId].teamIds[i];\n      for (uint j = 0; j < gamesMap[_gameId].bets[teamIdsRes[i]].length; j++) {\n        resultBetsRes[i] += gamesMap[_gameId].bets[teamIdsRes[i]][j].amount;\n      }\n    }\n    if (gamesMap[_gameId].allowDrawBets) {\n      for (i = 0; i < gamesMap[_gameId].drawBets.length; i++) {\n        resultBetsRes[size] += gamesMap[_gameId].drawBets[i].amount;\n      }\n    }\n\n    return (teamIdsRes, resultBetsRes);\n  }\n  /**\n  returns all bids\n   */\n  function getBets(uint _gameId) public view returns (uint[], address[], uint[]) {\n\n    uint betsSize = gamesMap[_gameId].drawBets.length;\n    uint[] memory betsShiftIndex = new uint[](gamesMap[_gameId].teamIds.length);\n\n    for (uint i = 0; i < gamesMap[_gameId].teamIds.length; i++) {\n      betsShiftIndex[i] = gamesMap[_gameId].bets[gamesMap[_gameId].teamIds[i]].length;\n      betsSize += betsShiftIndex[i];\n    }\n    //betsShiftIndex[gamesMap[_gameId].teamIds.length] = betsSize - gamesMap[_gameId].drawBets.length;\n\n    address[] memory bidders = new address[](betsSize);\n    uint[] memory amounts = new uint[](betsSize);\n\n    (bidders, amounts) = fillBets(_gameId, bidders, amounts);\n    return (betsShiftIndex, bidders, amounts);\n  }\n  /**\n  used internally in order to fill bets data\n   */\n  function fillBets(uint _gameId, address[] memory bidders, uint[] memory amounts) view returns (address[], uint[]) {\n    uint counter = 0;\n    for (uint i = 0; i < gamesMap[_gameId].teamIds.length; i++) {\n      for (uint j = 0; j < gamesMap[_gameId].bets[gamesMap[_gameId].teamIds[i]].length; j++) {\n        bidders[counter] = gamesMap[_gameId].bets[gamesMap[_gameId].teamIds[i]][j].addr;\n        amounts[counter] = gamesMap[_gameId].bets[gamesMap[_gameId].teamIds[i]][j].amount;\n\n        counter++;\n      }\n    }\n    for (i = 0; i < gamesMap[_gameId].drawBets.length; i++) {\n      bidders[counter] = gamesMap[_gameId].drawBets[i].addr;\n      amounts[counter] = gamesMap[_gameId].drawBets[i].amount;\n\n      counter++;\n    }\n\n\n    return (bidders, amounts);\n\n  }\n\n  /**\n  returns total bets count\n   */\n  function getBetsCount(uint _gameId) public view returns (uint){\n    uint count = gamesMap[_gameId].drawBets.length;\n\n    for (uint i = 0; i < gamesMap[_gameId].teamIds.length; i++) {\n      count += gamesMap[_gameId].bets[gamesMap[_gameId].teamIds[i]].length;\n    }\n    return count;\n\n  }\n  /**\n\n  add new game\n   */\n\n  function addGame(\n    bytes32 _sportType,\n    uint[] _teamIds,\n    uint _startDate,\n    uint _endDate,\n    bool _allowDraw,\n    uint _minBetAmount,\n    bytes32 _description,\n    uint _externalId\n  ) public isOwner\n  {\n    require(gamesMap[_externalId].externalId == 0);\n\n    gamesMap[_externalId].teamIds = _teamIds;\n    gamesMap[_externalId].startDate = _startDate;\n    gamesMap[_externalId].endDate = _endDate;\n    gamesMap[_externalId].description = _description;\n    gamesMap[_externalId].sportType = _sportType;\n    gamesMap[_externalId].minBetAmount = _minBetAmount;\n    gamesMap[_externalId].allowDrawBets = _allowDraw;\n    gamesMap[_externalId].externalId = _externalId;\n\n    gameIds.push(_externalId);\n\n  }\n\n\n  /**\n   used by clients in order to iterate existing games\n   */\n\n  function iterateGames(uint _startIndex, bytes32 _filterSportType, uint _filterStartDateBefore, bool _allowDraw) public view returns (\n    uint[],\n    uint[],\n    bytes32[]\n  ){\n\n    uint j = 0;\n    for (uint i = _startIndex; i < gameIds.length; i++) {\n      if (j == 10) {\n        break;\n      }\n      Game storage game = gamesMap[gameIds[i]];\n      if (game.startDate <= _filterStartDateBefore\n      && _filterSportType == game.sportType\n      && _allowDraw == game.allowDrawBets) {\n        j++;\n      }\n    }\n    uint size = j;\n    j = 0;\n\n    uint[] memory ids = new uint[](size);\n    uint[]memory startDates = new uint[](size);\n    bytes32[] memory descr = new bytes32[](size);\n\n    for (i = _startIndex; i < gameIds.length; i++) {\n      if (j == size) {\n        break;\n      }\n      game = gamesMap[gameIds[i]];\n      if (game.startDate <= _filterStartDateBefore\n      && _filterSportType == game.sportType\n      && _allowDraw == game.allowDrawBets) {\n        ids[j] = game.externalId;\n        startDates[j] = game.startDate;\n        descr[j] = game.description;\n        j++;\n      }\n    }\n\n\n    return (ids, startDates, descr);\n\n  }\n\n  /**\n  returns additional details about game\n   */\n\n  function getGameDetails(uint _id) public view returns (\n    uint[] teamIds_,\n\n    bool payoutLock_,\n    bool wasRefund_,\n\n    uint endDate_,\n    uint minBetAmount_,\n\n    bool allowDrawBets_\n  ){\n    teamIds_ = gamesMap[_id].teamIds;\n\n    payoutLock_ = gamesMap[_id].payoutLock;\n    wasRefund_ = gamesMap[_id].wasRefund;\n\n    endDate_ = gamesMap[_id].endDate;\n    minBetAmount_ = gamesMap[_id].minBetAmount;\n\n    allowDrawBets_ = gamesMap[_id].allowDrawBets;\n\n  }\n\n  function getGamesLen() public view returns (uint){\n    return gameIds.length;\n\n  }\n\n  /**\n  delete game and it makes sure that payments were done\n   */\n  function deleteGame(uint _id) public isOwner {\n    require(gamesMap[_id].payoutLock || gamesMap[_id].wasRefund);\n    delete gamesMap[_id];\n    for (uint i = 0; i < gameIds.length; i++) {\n      if (gameIds[i] == _id) {\n        gameIds[i] = gameIds[gameIds.length - 1];\n        gameIds.length--;\n        break;\n      }\n    }\n\n  }\n  /**\n  In case game canceled, it makes sure that payments were NOT done before\n  */\n  function refund(uint _id) public isOwner {\n    require(!gamesMap[_id].wasRefund && !gamesMap[_id].payoutLock);\n    gamesMap[_id].wasRefund = true;\n    for (uint i = 0; i < gamesMap[_id].drawBets.length; i++) {\n      gamesMap[_id].drawBets[i].addr.transfer(gamesMap[_id].drawBets[i].amount);\n    }\n    for (i = 0; i < gamesMap[_id].teamIds.length; i++) {\n      uint teamI = gamesMap[_id].teamIds[i];\n      for (uint j = 0; j < gamesMap[_id].teamIds.length; j++) {\n        gamesMap[_id].bets[teamI][j].addr.transfer(gamesMap[_id].bets[teamI][j].amount);\n      }\n    }\n\n\n  }\n\n\n}\n",
  "sourcePath": "/home/v/WebstormProjects/bets/contracts/SportBets.sol",
  "compiler": {
    "name": "solc",
    "version": "0.4.18+commit.9cf6e910.Emscripten.clang"
  },
  "schemaVersion": "1.0.1",
  "updatedAt": "2017-12-07T19:16:37.207Z"
}