{
  "contractName": "SportBets",
  "abi": [
    {
      "constant": true,
      "inputs": [
        {
          "name": "_gameId",
          "type": "uint256"
        }
      ],
      "name": "getBetsCount",
      "outputs": [
        {
          "name": "",
          "type": "uint256"
        }
      ],
      "payable": false,
      "stateMutability": "view",
      "type": "function"
    },
    {
      "constant": true,
      "inputs": [
        {
          "name": "_id",
          "type": "uint256"
        }
      ],
      "name": "getGameDetails",
      "outputs": [
        {
          "name": "teamIds_",
          "type": "uint256[]"
        },
        {
          "name": "payoutLock_",
          "type": "bool"
        },
        {
          "name": "wasRefund_",
          "type": "bool"
        },
        {
          "name": "endDate_",
          "type": "uint256"
        },
        {
          "name": "minBetAmount_",
          "type": "uint256"
        },
        {
          "name": "allowDrawBets_",
          "type": "bool"
        }
      ],
      "payable": false,
      "stateMutability": "view",
      "type": "function"
    },
    {
      "constant": true,
      "inputs": [
        {
          "name": "_gameId",
          "type": "uint256"
        }
      ],
      "name": "getBets",
      "outputs": [
        {
          "name": "",
          "type": "uint256[]"
        },
        {
          "name": "",
          "type": "address[]"
        },
        {
          "name": "",
          "type": "uint256[]"
        }
      ],
      "payable": false,
      "stateMutability": "view",
      "type": "function"
    },
    {
      "constant": true,
      "inputs": [],
      "name": "getGamesLen",
      "outputs": [
        {
          "name": "",
          "type": "uint256"
        }
      ],
      "payable": false,
      "stateMutability": "view",
      "type": "function"
    },
    {
      "constant": false,
      "inputs": [
        {
          "name": "_id",
          "type": "uint256"
        }
      ],
      "name": "deleteGame",
      "outputs": [],
      "payable": false,
      "stateMutability": "nonpayable",
      "type": "function"
    },
    {
      "constant": false,
      "inputs": [
        {
          "name": "_id",
          "type": "uint256"
        }
      ],
      "name": "refund",
      "outputs": [],
      "payable": false,
      "stateMutability": "nonpayable",
      "type": "function"
    },
    {
      "constant": true,
      "inputs": [
        {
          "name": "_gameId",
          "type": "uint256"
        },
        {
          "name": "bidders",
          "type": "address[]"
        },
        {
          "name": "amounts",
          "type": "uint256[]"
        }
      ],
      "name": "fillBets",
      "outputs": [
        {
          "name": "",
          "type": "address[]"
        },
        {
          "name": "",
          "type": "uint256[]"
        }
      ],
      "payable": false,
      "stateMutability": "view",
      "type": "function"
    },
    {
      "constant": false,
      "inputs": [
        {
          "name": "_gameId",
          "type": "uint256"
        },
        {
          "name": "_teamId",
          "type": "uint256"
        },
        {
          "name": "_isDraw",
          "type": "bool"
        }
      ],
      "name": "bet",
      "outputs": [],
      "payable": true,
      "stateMutability": "payable",
      "type": "function"
    },
    {
      "constant": false,
      "inputs": [],
      "name": "changeOwner",
      "outputs": [
        {
          "name": "",
          "type": "address"
        }
      ],
      "payable": false,
      "stateMutability": "nonpayable",
      "type": "function"
    },
    {
      "constant": true,
      "inputs": [
        {
          "name": "_startIndex",
          "type": "uint256"
        },
        {
          "name": "_filterSportType",
          "type": "bytes32"
        },
        {
          "name": "_filterStartDateBefore",
          "type": "uint256"
        },
        {
          "name": "_allowDraw",
          "type": "bool"
        }
      ],
      "name": "iterateGames",
      "outputs": [
        {
          "name": "",
          "type": "uint256[]"
        },
        {
          "name": "",
          "type": "uint256[]"
        },
        {
          "name": "",
          "type": "bytes32[]"
        },
        {
          "name": "",
          "type": "bytes32[]"
        }
      ],
      "payable": false,
      "stateMutability": "view",
      "type": "function"
    },
    {
      "constant": false,
      "inputs": [
        {
          "name": "_gameId",
          "type": "uint256"
        },
        {
          "name": "_drawBetToPayouts",
          "type": "uint256[]"
        },
        {
          "name": "_teamIdsLimits",
          "type": "uint256[]"
        },
        {
          "name": "_payoutAmount",
          "type": "uint256[]"
        }
      ],
      "name": "payout",
      "outputs": [],
      "payable": false,
      "stateMutability": "nonpayable",
      "type": "function"
    },
    {
      "constant": true,
      "inputs": [
        {
          "name": "",
          "type": "uint256"
        }
      ],
      "name": "teamIds",
      "outputs": [
        {
          "name": "",
          "type": "uint256"
        }
      ],
      "payable": false,
      "stateMutability": "view",
      "type": "function"
    },
    {
      "constant": true,
      "inputs": [],
      "name": "owner",
      "outputs": [
        {
          "name": "",
          "type": "address"
        }
      ],
      "payable": false,
      "stateMutability": "view",
      "type": "function"
    },
    {
      "constant": false,
      "inputs": [
        {
          "name": "_sportType",
          "type": "bytes32"
        },
        {
          "name": "_teamIds",
          "type": "uint256[]"
        },
        {
          "name": "_startDate",
          "type": "uint256"
        },
        {
          "name": "_endDate",
          "type": "uint256"
        },
        {
          "name": "_allowDraw",
          "type": "bool"
        },
        {
          "name": "_minBetAmount",
          "type": "uint256"
        },
        {
          "name": "_description",
          "type": "bytes32"
        },
        {
          "name": "_externalId",
          "type": "bytes32"
        }
      ],
      "name": "addGame",
      "outputs": [],
      "payable": false,
      "stateMutability": "nonpayable",
      "type": "function"
    },
    {
      "constant": true,
      "inputs": [
        {
          "name": "_gameId",
          "type": "uint256"
        }
      ],
      "name": "getBetRate",
      "outputs": [
        {
          "name": "",
          "type": "uint256[]"
        },
        {
          "name": "",
          "type": "uint256[]"
        }
      ],
      "payable": false,
      "stateMutability": "view",
      "type": "function"
    },
    {
      "constant": true,
      "inputs": [
        {
          "name": "_ids",
          "type": "uint256[]"
        }
      ],
      "name": "getTeam",
      "outputs": [
        {
          "name": "",
          "type": "uint256[]"
        },
        {
          "name": "",
          "type": "bytes32[]"
        },
        {
          "name": "",
          "type": "bytes32[]"
        },
        {
          "name": "",
          "type": "bytes32[]"
        }
      ],
      "payable": false,
      "stateMutability": "view",
      "type": "function"
    },
    {
      "constant": false,
      "inputs": [
        {
          "name": "_sportType",
          "type": "bytes32"
        },
        {
          "name": "_teamName",
          "type": "bytes32"
        },
        {
          "name": "_description",
          "type": "bytes32"
        },
        {
          "name": "_externalId",
          "type": "bytes32"
        }
      ],
      "name": "addTeam",
      "outputs": [],
      "payable": false,
      "stateMutability": "nonpayable",
      "type": "function"
    },
    {
      "constant": true,
      "inputs": [
        {
          "name": "",
          "type": "uint256"
        }
      ],
      "name": "gameIds",
      "outputs": [
        {
          "name": "",
          "type": "uint256"
        }
      ],
      "payable": false,
      "stateMutability": "view",
      "type": "function"
    },
    {
      "constant": true,
      "inputs": [
        {
          "name": "_startIndex",
          "type": "uint256"
        },
        {
          "name": "_filterSportType",
          "type": "bytes32"
        }
      ],
      "name": "iterateTeams",
      "outputs": [
        {
          "name": "",
          "type": "uint256[]"
        },
        {
          "name": "",
          "type": "bytes32[]"
        },
        {
          "name": "",
          "type": "bytes32[]"
        },
        {
          "name": "",
          "type": "bytes32[]"
        }
      ],
      "payable": false,
      "stateMutability": "view",
      "type": "function"
    },
    {
      "constant": true,
      "inputs": [],
      "name": "getTeamsLen",
      "outputs": [
        {
          "name": "",
          "type": "uint256"
        }
      ],
      "payable": false,
      "stateMutability": "view",
      "type": "function"
    },
    {
      "constant": false,
      "inputs": [
        {
          "name": "_id",
          "type": "uint256"
        }
      ],
      "name": "deleteTeam",
      "outputs": [],
      "payable": false,
      "stateMutability": "nonpayable",
      "type": "function"
    },
    {
      "inputs": [],
      "payable": true,
      "stateMutability": "payable",
      "type": "constructor"
    }
  ],
  "bytecode": "0x6060604052336000806101000a81548173ffffffffffffffffffffffffffffffffffffffff021916908373ffffffffffffffffffffffffffffffffffffffff16021790555060018081905550612f608061005a6000396000f30060606040526004361061011d576000357c0100000000000000000000000000000000000000000000000000000000900463ffffffff16806305c4cb45146101225780631b31abda146101595780631ccf695514610200578063203e706014610308578063248a55a114610331578063278ecde1146103545780633aa89b151461037757806349d79a12146104b757806362a09477146104e35780636571f7c2146105385780637518c7ee146106a957806388cbd0001461078c5780638da5cb5b146107c3578063bbd4aa0f14610818578063c0b3f4f1146108bf578063c29580e01461097f578063d7430f3914610b06578063d82c13f014610b54578063db25369a14610b8b578063dfc322e514610ce8578063ea842e6514610d11575b600080fd5b341561012d57600080fd5b6101436004808035906020019091905050610d34565b6040518082815260200191505060405180910390f35b341561016457600080fd5b61017a6004808035906020019091905050610def565b6040518080602001871515151581526020018615151515815260200185815260200184815260200183151515158152602001828103825288818151815260200191508051906020019060200280838360005b838110156101e75780820151818401526020810190506101cc565b5050505090500197505050505050505060405180910390f35b341561020b57600080fd5b6102216004808035906020019091905050610f13565b60405180806020018060200180602001848103845287818151815260200191508051906020019060200280838360005b8381101561026c578082015181840152602081019050610251565b50505050905001848103835286818151815260200191508051906020019060200280838360005b838110156102ae578082015181840152602081019050610293565b50505050905001848103825285818151815260200191508051906020019060200280838360005b838110156102f05780820151818401526020810190506102d5565b50505050905001965050505050505060405180910390f35b341561031357600080fd5b61031b6110cb565b6040518082815260200191505060405180910390f35b341561033c57600080fd5b61035260048080359060200190919050506110d8565b005b341561035f57600080fd5b61037560048080359060200190919050506112da565b005b341561038257600080fd5b61041860048080359060200190919080359060200190820180359060200190808060200260200160405190810160405280939291908181526020018383602002808284378201915050505050509190803590602001908201803590602001908080602002602001604051908101604052809392919081815260200183836020028082843782019150505050505091905050611648565b604051808060200180602001838103835285818151815260200191508051906020019060200280838360005b8381101561045f578082015181840152602081019050610444565b50505050905001838103825284818151815260200191508051906020019060200280838360005b838110156104a1578082015181840152602081019050610486565b5050505090500194505050505060405180910390f35b6104e1600480803590602001909190803590602001909190803515159060200190919050506119b7565b005b34156104ee57600080fd5b6104f6611bfd565b604051808273ffffffffffffffffffffffffffffffffffffffff1673ffffffffffffffffffffffffffffffffffffffff16815260200191505060405180910390f35b341561054357600080fd5b61057a6004808035906020019091908035600019169060200190919080359060200190919080351515906020019091905050611cc1565b6040518080602001806020018060200180602001858103855289818151815260200191508051906020019060200280838360005b838110156105c95780820151818401526020810190506105ae565b50505050905001858103845288818151815260200191508051906020019060200280838360005b8381101561060b5780820151818401526020810190506105f0565b50505050905001858103835287818151815260200191508051906020019060200280838360005b8381101561064d578082015181840152602081019050610632565b50505050905001858103825286818151815260200191508051906020019060200280838360005b8381101561068f578082015181840152602081019050610674565b505050509050019850505050505050505060405180910390f35b34156106b457600080fd5b61078a6004808035906020019091908035906020019082018035906020019080806020026020016040519081016040528093929190818152602001838360200280828437820191505050505050919080359060200190820180359060200190808060200260200160405190810160405280939291908181526020018383602002808284378201915050505050509190803590602001908201803590602001908080602002602001604051908101604052809392919081815260200183836020028082843782019150505050505091905050611f9c565b005b341561079757600080fd5b6107ad60048080359060200190919050506122ed565b6040518082815260200191505060405180910390f35b34156107ce57600080fd5b6107d6612311565b604051808273ffffffffffffffffffffffffffffffffffffffff1673ffffffffffffffffffffffffffffffffffffffff16815260200191505060405180910390f35b341561082357600080fd5b6108bd6004808035600019169060200190919080359060200190820180359060200190808060200260200160405190810160405280939291908181526020018383602002808284378201915050505050509190803590602001909190803590602001909190803515159060200190919080359060200190919080356000191690602001909190803560001916906020019091905050612336565b005b34156108ca57600080fd5b6108e0600480803590602001909190505061250e565b604051808060200180602001838103835285818151815260200191508051906020019060200280838360005b8381101561092757808201518184015260208101905061090c565b50505050905001838103825284818151815260200191508051906020019060200280838360005b8381101561096957808201518184015260208101905061094e565b5050505090500194505050505060405180910390f35b341561098a57600080fd5b6109d76004808035906020019082018035906020019080806020026020016040519081016040528093929190818152602001838360200280828437820191505050505050919050506127b8565b6040518080602001806020018060200180602001858103855289818151815260200191508051906020019060200280838360005b83811015610a26578082015181840152602081019050610a0b565b50505050905001858103845288818151815260200191508051906020019060200280838360005b83811015610a68578082015181840152602081019050610a4d565b50505050905001858103835287818151815260200191508051906020019060200280838360005b83811015610aaa578082015181840152602081019050610a8f565b50505050905001858103825286818151815260200191508051906020019060200280838360005b83811015610aec578082015181840152602081019050610ad1565b505050509050019850505050505050505060405180910390f35b3415610b1157600080fd5b610b52600480803560001916906020019091908035600019169060200190919080356000191690602001909190803560001916906020019091905050612985565b005b3415610b5f57600080fd5b610b756004808035906020019091905050612ae6565b6040518082815260200191505060405180910390f35b3415610b9657600080fd5b610bb9600480803590602001909190803560001916906020019091905050612b0a565b6040518080602001806020018060200180602001858103855289818151815260200191508051906020019060200280838360005b83811015610c08578082015181840152602081019050610bed565b50505050905001858103845288818151815260200191508051906020019060200280838360005b83811015610c4a578082015181840152602081019050610c2f565b50505050905001858103835287818151815260200191508051906020019060200280838360005b83811015610c8c578082015181840152602081019050610c71565b50505050905001858103825286818151815260200191508051906020019060200280838360005b83811015610cce578082015181840152602081019050610cb3565b505050509050019850505050505050505060405180910390f35b3415610cf357600080fd5b610cfb612c20565b6040518082815260200191505060405180910390f35b3415610d1c57600080fd5b610d326004808035906020019091905050612c2d565b005b600080600060046000858152602001908152602001600020600301805490509150600090505b6004600085815260200190815260200160002060010180549050811015610de5576004600085815260200190815260200160002060020160006004600087815260200190815260200160002060010183815481101515610db657fe5b906000526020600020900154815260200190815260200160002080549050820191508080600101915050610d5a565b8192505050919050565b610df7612d69565b600080600080600060046000888152602001908152602001600020600101805480602002602001604051908101604052809291908181526020018280548015610e5f57602002820191906000526020600020905b815481526020019060010190808311610e4b575b505050505095506004600088815260200190815260200160002060040160009054906101000a900460ff1694506004600088815260200190815260200160002060040160019054906101000a900460ff1693506004600088815260200190815260200160002060060154925060046000888152602001908152602001600020600a0154915060046000888152602001908152602001600020600b0160009054906101000a900460ff16905091939550919395565b610f1b612d69565b610f23612d7d565b610f2b612d69565b6000610f35612d69565b6000610f3f612d7d565b610f47612d69565b600460008a8152602001908152602001600020600301805490509450600460008a815260200190815260200160002060010180549050604051805910610f8a5750595b90808252806020026020018201604052509350600092505b600460008a81526020019081526020016000206001018054905083101561106157600460008a81526020019081526020016000206002016000600460008c815260200190815260200160002060010185815481101515610ffe57fe5b906000526020600020900154815260200190815260200160002080549050848481518110151561102a57fe5b9060200190602002018181525050838381518110151561104657fe5b90602001906020020151850194508280600101935050610fa2565b8460405180591061106f5750595b90808252806020026020018201604052509150846040518059106110905750595b908082528060200260200182016040525090506110ae898383611648565b809250819350505083828297509750975050505050509193909250565b6000600580549050905090565b60008060009054906101000a900473ffffffffffffffffffffffffffffffffffffffff1673ffffffffffffffffffffffffffffffffffffffff163373ffffffffffffffffffffffffffffffffffffffff1614151561113557600080fd5b6004600083815260200190815260200160002060040160009054906101000a900460ff168061118457506004600083815260200190815260200160002060040160019054906101000a900460ff165b151561118f57600080fd5b600460008381526020019081526020016000206000808201600090556001820160006111bb9190612d91565b6003820160006111cb9190612db2565b6004820160006101000a81549060ff02191690556004820160016101000a81549060ff021916905560058201600090556006820160009055600782016000905560088201600090556009820160009055600a820160009055600b820160006101000a81549060ff02191690555050600090505b6005805490508110156112d6578160058281548110151561125b57fe5b90600052602060002090015414156112c957600560016005805490500381548110151561128457fe5b90600052602060002090015460058281548110151561129f57fe5b90600052602060002090018190555060058054809190600190036112c39190612dd6565b506112d6565b808060010191505061123e565b5050565b60008060008060009054906101000a900473ffffffffffffffffffffffffffffffffffffffff1673ffffffffffffffffffffffffffffffffffffffff163373ffffffffffffffffffffffffffffffffffffffff1614151561133a57600080fd5b6004600085815260200190815260200160002060040160019054906101000a900460ff1615801561138c57506004600085815260200190815260200160002060040160009054906101000a900460ff16155b151561139757600080fd5b60016004600086815260200190815260200160002060040160016101000a81548160ff021916908315150217905550600092505b60046000858152602001908152602001600020600301805490508310156114c157600460008581526020019081526020016000206003018381548110151561140f57fe5b906000526020600020906002020160000160009054906101000a900473ffffffffffffffffffffffffffffffffffffffff1673ffffffffffffffffffffffffffffffffffffffff166108fc600460008781526020019081526020016000206003018581548110151561147d57fe5b9060005260206000209060020201600101549081150290604051600060405180830381858888f1935050505015156114b457600080fd5b82806001019350506113cb565b600092505b600460008581526020019081526020016000206001018054905083101561164257600460008581526020019081526020016000206001018381548110151561150a57fe5b9060005260206000209001549150600090505b6004600085815260200190815260200160002060010180549050811015611635576004600085815260200190815260200160002060020160008381526020019081526020016000208181548110151561157257fe5b906000526020600020906002020160000160009054906101000a900473ffffffffffffffffffffffffffffffffffffffff1673ffffffffffffffffffffffffffffffffffffffff166108fc600460008781526020019081526020016000206002016000858152602001908152602001600020838154811015156115f157fe5b9060005260206000209060020201600101549081150290604051600060405180830381858888f19350505050151561162857600080fd5b808060010191505061151d565b82806001019350506114c6565b50505050565b611650612d7d565b611658612d69565b6000806000809250600091505b600460008981526020019081526020016000206001018054905082101561187b57600090505b600460008981526020019081526020016000206002016000600460008b8152602001908152602001600020600101848154811015156116c657fe5b90600052602060002090015481526020019081526020016000208054905081101561186e57600460008981526020019081526020016000206002016000600460008b81526020019081526020016000206001018481548110151561172657fe5b90600052602060002090015481526020019081526020016000208181548110151561174d57fe5b906000526020600020906002020160000160009054906101000a900473ffffffffffffffffffffffffffffffffffffffff16878481518110151561178d57fe5b9060200190602002019073ffffffffffffffffffffffffffffffffffffffff16908173ffffffffffffffffffffffffffffffffffffffff1681525050600460008981526020019081526020016000206002016000600460008b81526020019081526020016000206001018481548110151561180457fe5b90600052602060002090015481526020019081526020016000208181548110151561182b57fe5b906000526020600020906002020160010154868481518110151561184b57fe5b90602001906020020181815250508280600101935050808060010191505061168b565b8180600101925050611665565b600091505b60046000898152602001908152602001600020600301805490508210156119a65760046000898152602001908152602001600020600301828154811015156118c457fe5b906000526020600020906002020160000160009054906101000a900473ffffffffffffffffffffffffffffffffffffffff16878481518110151561190457fe5b9060200190602002019073ffffffffffffffffffffffffffffffffffffffff16908173ffffffffffffffffffffffffffffffffffffffff1681525050600460008981526020019081526020016000206003018281548110151561196357fe5b906000526020600020906002020160010154868481518110151561198357fe5b906020019060200201818152505082806001019350508180600101925050611880565b868694509450505050935093915050565b60046000848152602001908152602001600020600a015434101580156119f25750600460008481526020019081526020016000206005015442105b8015611a1f57506004600084815260200190815260200160002060040160019054906101000a900460ff16155b8015611a285750805b611a33576001611a58565b60046000848152602001908152602001600020600b0160009054906101000a900460ff165b1515611a6357600080fd5b8015611b2a57600460008481526020019081526020016000206003018054806001018281611a919190612e02565b9160005260206000209060020201600060408051908101604052803373ffffffffffffffffffffffffffffffffffffffff16815260200134815250909190915060008201518160000160006101000a81548173ffffffffffffffffffffffffffffffffffffffff021916908373ffffffffffffffffffffffffffffffffffffffff16021790555060208201518160010155505050611bf8565b6004600084815260200190815260200160002060020160008381526020019081526020016000208054806001018281611b639190612e02565b9160005260206000209060020201600060408051908101604052803373ffffffffffffffffffffffffffffffffffffffff16815260200134815250909190915060008201518160000160006101000a81548173ffffffffffffffffffffffffffffffffffffffff021916908373ffffffffffffffffffffffffffffffffffffffff160217905550602082015181600101555050505b505050565b60008060009054906101000a900473ffffffffffffffffffffffffffffffffffffffff1673ffffffffffffffffffffffffffffffffffffffff163373ffffffffffffffffffffffffffffffffffffffff16141515611c5a57600080fd5b336000806101000a81548173ffffffffffffffffffffffffffffffffffffffff021916908373ffffffffffffffffffffffffffffffffffffffff1602179055506000809054906101000a900473ffffffffffffffffffffffffffffffffffffffff16905090565b611cc9612d69565b611cd1612d69565b611cd9612e34565b611ce1612e34565b600080600080611cef612d69565b611cf7612d69565b611cff612e34565b611d07612e34565b600097508f96505b600580549050871015611db357600a881415611d2a57611db3565b60046000600589815481101515611d3d57fe5b906000526020600020900154815260200190815260200160002095508d866005015411158015611d7857508560080154600019168f60001916145b8015611d98575085600b0160009054906101000a900460ff1615158d1515145b15611da65787806001019850505b8680600101975050611d0f565b8794506000975084604051805910611dc85750595b9080825280602002602001820160405250935084604051805910611de95750595b9080825280602002602001820160405250925084604051805910611e0a5750595b9080825280602002602001820160405250915084604051805910611e2b5750595b908082528060200260200182016040525090508f96505b600580549050871015611f7d5784881415611e5c57611f7d565b60046000600589815481101515611e6f57fe5b906000526020600020900154815260200190815260200160002095508d866005015411158015611eaa57508560080154600019168f60001916145b8015611eca575085600b0160009054906101000a900460ff1615158d1515145b15611f705785600001548489815181101515611ee257fe5b906020019060200201818152505085600501548389815181101515611f0357fe5b906020019060200201818152505085600701548289815181101515611f2457fe5b90602001906020020190600019169081600019168152505085600901548189815181101515611f4f57fe5b90602001906020020190600019169081600019168152505087806001019850505b8680600101975050611e42565b838383839b509b509b509b505050505050505050945094509450949050565b60008060008060009054906101000a900473ffffffffffffffffffffffffffffffffffffffff1673ffffffffffffffffffffffffffffffffffffffff163373ffffffffffffffffffffffffffffffffffffffff16141515611ffc57600080fd5b6004600088815260200190815260200160002060040160009054906101000a900460ff161580156120425750600460008881526020019081526020016000206006015442115b801561206f57506004600088815260200190815260200160002060040160019054906101000a900460ff16155b151561207a57600080fd5b60016004600089815260200190815260200160002060040160006101000a81548160ff021916908315150217905550600092505b855183101561216f5760046000888152602001908152602001600020600301838154811015156120da57fe5b906000526020600020906002020160000160009054906101000a900473ffffffffffffffffffffffffffffffffffffffff1673ffffffffffffffffffffffffffffffffffffffff166108fc878581518110151561213357fe5b906020019060200201519081150290604051600060405180830381858888f19350505050151561216257600080fd5b82806001019350506120ae565b600092505b84518310156122e457600083146121a557846001840381518110151561219657fe5b906020019060200201516121a8565b60005b91505b84838151811015156121b957fe5b906020019060200201518210156122d757600090505b600460008881526020019081526020016000206002016000838152602001908152602001600020805490508110156122ca576004600088815260200190815260200160002060020160008381526020019081526020016000208181548110151561223557fe5b906000526020600020906002020160000160009054906101000a900473ffffffffffffffffffffffffffffffffffffffff1673ffffffffffffffffffffffffffffffffffffffff166108fc858481518110151561228e57fe5b906020019060200201519081150290604051600060405180830381858888f1935050505015156122bd57600080fd5b80806001019150506121cf565b81806001019250506121ab565b8280600101935050612174565b50505050505050565b6003818154811015156122fc57fe5b90600052602060002090016000915090505481565b6000809054906101000a900473ffffffffffffffffffffffffffffffffffffffff1681565b6000809054906101000a900473ffffffffffffffffffffffffffffffffffffffff1673ffffffffffffffffffffffffffffffffffffffff163373ffffffffffffffffffffffffffffffffffffffff1614151561239157600080fd5b600154600460006001548152602001908152602001600020600001819055508660046000600154815260200190815260200160002060010190805190602001906123dc929190612e48565b508560046000600154815260200190815260200160002060050181905550846004600060015481526020019081526020016000206006018190555081600460006001548152602001908152602001600020600701816000191690555087600460006001548152602001908152602001600020600801816000191690555082600460006001548152602001908152602001600020600a018190555083600460006001548152602001908152602001600020600b0160006101000a81548160ff021916908315150217905550806004600060015481526020019081526020016000206009018160001916905550600580548060010182816124db9190612e95565b91600052602060002090016000600154909190915055506001600081548092919060010191905055505050505050505050565b612516612d69565b61251e612d69565b6000612528612d69565b612530612d69565b60008060046000898152602001908152602001600020600101805490509450600185016040518059106125605750595b90808252806020026020018201604052509350600185016040518059106125845750595b90808252806020026020018201604052509250600083868151811015156125a757fe5b9060200190602002018181525050600091505b848210156126f45760046000898152602001908152602001600020600101828154811015156125e557fe5b90600052602060002090015483838151811015156125ff57fe5b9060200190602002018181525050600090505b600460008981526020019081526020016000206002016000848481518110151561263857fe5b906020019060200201518152602001908152602001600020805490508110156126e757600460008981526020019081526020016000206002016000848481518110151561268157fe5b906020019060200201518152602001908152602001600020818154811015156126a657fe5b90600052602060002090600202016001015484838151811015156126c657fe5b90602001906020020181815101915081815250508080600101915050612612565b81806001019250506125ba565b60046000898152602001908152602001600020600b0160009054906101000a900460ff16156127a857600091505b60046000898152602001908152602001600020600301805490508210156127a757600460008981526020019081526020016000206003018281548110151561276657fe5b906000526020600020906002020160010154848681518110151561278657fe5b90602001906020020181815101915081815250508180600101925050612722565b5b8284965096505050505050915091565b6127c0612d69565b6127c8612e34565b6127d0612e34565b6127d8612e34565b6127e0612d69565b6127e8612e34565b6127f0612e34565b6127f8612e34565b6000808a5160405180591061280a5750595b908082528060200260200182016040525095508a5160405180591061282c5750595b908082528060200260200182016040525094508a5160405180591061284e5750595b908082528060200260200182016040525093508a516040518059106128705750595b90808252806020026020018201604052509250600091505b8a5182101561296c57600260008c848151811015156128a357fe5b9060200190602002015181526020019081526020016000209050806000015486838151811015156128d057fe5b9060200190602002018181525050806001015485838151811015156128f157fe5b9060200190602002019060001916908160001916815250508060020154848381518110151561291c57fe5b9060200190602002019060001916908160001916815250508060040154838381518110151561294757fe5b9060200190602002019060001916908160001916815250508180600101925050612888565b8585858599509950995099505050505050509193509193565b6000809054906101000a900473ffffffffffffffffffffffffffffffffffffffff1673ffffffffffffffffffffffffffffffffffffffff163373ffffffffffffffffffffffffffffffffffffffff161415156129e057600080fd5b600060026000600154815260200190815260200160002060000154141515612a0757600080fd5b60a06040519081016040528060015481526020018460001916815260200183600019168152602001856000191681526020018260001916815250600260006001548152602001908152602001600020600082015181600001556020820151816001019060001916905560408201518160020190600019169055606082015181600301906000191690556080820151816004019060001916905590505060038054806001018281612ab79190612e95565b916000526020600020900160006001549091909150555060016000815480929190600101919050555050505050565b600581815481101515612af557fe5b90600052602060002090016000915090505481565b612b12612d69565b612b1a612e34565b612b22612e34565b612b2a612e34565b612b32612d69565b600080600a604051805910612b445750595b908082528060200260200182016040525092508890505b600380549050811015612c0357876000191660026000600384815481101515612b8057fe5b906000526020600020900154815260200190815260200160002060030154600019161415612bf657600a821415612bb657612c03565b600381815481101515612bc557fe5b9060005260206000209001548383815181101515612bdf57fe5b906020019060200201818152505081806001019250505b8080600101915050612b5b565b612c0c836127b8565b965096509650965050505092959194509250565b6000600380549050905090565b60008060009054906101000a900473ffffffffffffffffffffffffffffffffffffffff1673ffffffffffffffffffffffffffffffffffffffff163373ffffffffffffffffffffffffffffffffffffffff16141515612c8a57600080fd5b6002600083815260200190815260200160002060008082016000905560018201600090556002820160009055600382016000905560048201600090555050600090505b600380549050811015612d655781600382815481101515612cea57fe5b9060005260206000209001541415612d58576003600160038054905003815481101515612d1357fe5b906000526020600020900154600382815481101515612d2e57fe5b9060005260206000209001819055506003805480919060019003612d529190612dd6565b50612d65565b8080600101915050612ccd565b5050565b602060405190810160405280600081525090565b602060405190810160405280600081525090565b5080546000825590600052602060002090810190612daf9190612ec1565b50565b5080546000825560020290600052602060002090810190612dd39190612ee6565b50565b815481835581811511612dfd57818360005260206000209182019101612dfc9190612ec1565b5b505050565b815481835581811511612e2f57600202816002028360005260206000209182019101612e2e9190612ee6565b5b505050565b602060405190810160405280600081525090565b828054828255906000526020600020908101928215612e84579160200282015b82811115612e83578251825591602001919060010190612e68565b5b509050612e919190612ec1565b5090565b815481835581811511612ebc57818360005260206000209182019101612ebb9190612ec1565b5b505050565b612ee391905b80821115612edf576000816000905550600101612ec7565b5090565b90565b612f3191905b80821115612f2d57600080820160006101000a81549073ffffffffffffffffffffffffffffffffffffffff0219169055600182016000905550600201612eec565b5090565b905600a165627a7a72305820b12a9157dc0838dca62c76b50cdf0f9a55b00510fbc64f1916d1adabd65a06cf0029",
  "source": "pragma solidity ^0.4.0;\n\n\n/**\n * vitaliy.kuzmich[at]gmail.com\n */\ncontract SportBets {\n\n  function SportBets() payable public {\n    owner = msg.sender;\n    idGen = 1;\n  }\n  modifier isOwner{\n    require(msg.sender == owner);\n    _;\n\n  }\n\n  struct Bet {\n  address addr;\n  uint amount;\n  }\n\n  struct Team {\n  uint id;\n  bytes32 teamName;\n  bytes32 description;\n  bytes32 sportType;\n  bytes32 externalId;\n\n  }\n\n  struct Game {\n  uint id;\n  uint[] teamIds;\n  mapping (uint => Bet[]) bets;\n\n  //game status\n  Bet[] drawBets;\n  bool payoutLock;\n  bool wasRefund;\n  //end game status\n\n  uint startDate;\n  uint endDate;\n\n  bytes32 description;\n  bytes32 sportType;\n  bytes32 externalId;\n\n  uint minBetAmount;\n  bool allowDrawBets;\n\n  }\n\n  address public owner;\n\n  uint idGen;\n\n  //sport type to teams\n  mapping (uint => Team) teams;\n\n  uint[] public teamIds;\n\n  mapping (uint => Game) gamesMap;\n\n  uint[] public gameIds;\n\n\n  function getTeam(uint[] _ids) public view\n  returns (\n  uint[],\n  bytes32[],\n  bytes32[],\n  bytes32[]){\n    uint[] memory resultID = new uint[](_ids.length);\n    bytes32[] memory resultname = new bytes32[](_ids.length);\n    bytes32[] memory resultdesc = new bytes32[](_ids.length);\n    bytes32[] memory exIds = new bytes32[](_ids.length);\n\n    for (uint i = 0; i < _ids.length; i++) {\n      Team storage t1 = teams[_ids[i]];\n      resultID[i] = t1.id;\n      resultname[i] = t1.teamName;\n      resultdesc[i] = t1.description;\n      exIds[i] = t1.externalId;\n    }\n    return (resultID, resultname, resultdesc, exIds);\n\n  }\n\n  function iterateTeams(uint _startIndex, bytes32 _filterSportType) public view\n  returns (\n  uint[],\n  bytes32[],\n  bytes32[],\n  bytes32[]){\n    uint[] memory tIds = new uint[](10);\n    uint counter;\n    for (uint i = _startIndex; i < teamIds.length; i++) {\n      if (teams[teamIds[i]].sportType == _filterSportType) {\n        if (counter == 10) {\n          break;\n        }\n        tIds[counter] = teamIds[i];\n        counter++;\n      }\n    }\n\n    return getTeam(tIds);\n  }\n\n\n  function addTeam(bytes32 _sportType, bytes32 _teamName, bytes32 _description, bytes32 _externalId) public isOwner {\n\n    require(teams[idGen].id == 0);\n\n    teams[idGen] = Team({\n    id : idGen,\n    sportType : _sportType,\n    teamName : _teamName,\n    description : _description,\n    externalId : _externalId\n    });\n\n    teamIds.push(idGen);\n    idGen++;\n\n  }\n\n  function getTeamsLen() public view returns (uint){\n    return teamIds.length;\n\n  }\n\n\n  function deleteTeam(uint _id) public isOwner {\n    delete teams[_id];\n    for (uint i = 0; i < teamIds.length; i++) {\n      if (teamIds[i] == _id) {\n        teamIds[i] = teamIds[teamIds.length - 1];\n        teamIds.length--;\n        break;\n      }\n    }\n  }\n\n\n  function changeOwner() public isOwner returns (address) {\n    owner = msg.sender;\n    return owner;\n  }\n\n  /**\n  * Calculating done externally because of lack of decimal arithmetics. It makes sure that payments was not done before.\n  *\n  */\n  function payout(uint _gameId, uint[] _drawBetToPayouts, uint[] _teamIdsLimits, uint[] _payoutAmount) isOwner public {\n\n    require(!gamesMap[_gameId].payoutLock\n     && now > gamesMap[_gameId].endDate\n    && !gamesMap[_gameId].wasRefund);\n\n    gamesMap[_gameId].payoutLock = true;\n    for (uint i = 0; i < _drawBetToPayouts.length; i++) {\n      gamesMap[_gameId].drawBets[i].addr.transfer(_drawBetToPayouts[i]);\n    }\n    //payout the rest bidders\n    for (i = 0; i < _teamIdsLimits.length; i++) {\n      for (uint j = i == 0 ? 0 : _teamIdsLimits[i - 1]; j < _teamIdsLimits[i]; j++) {\n        for (uint i1 = 0; i1 < gamesMap[_gameId].bets[j].length; i1++) {\n          gamesMap[_gameId].bets[j][i1].addr.transfer(_payoutAmount[j]);\n        }\n      }\n    }\n\n  }\n  /**\n  putting money on game/team/draw\n   */\n  function bet(uint _gameId, uint _teamId, bool _isDraw) payable public {\n    require(\n    msg.value >= gamesMap[_gameId].minBetAmount &&\n    now < gamesMap[_gameId].startDate &&\n    !gamesMap[_gameId].wasRefund &&\n    _isDraw ? gamesMap[_gameId].allowDrawBets : true\n    );\n    if (_isDraw) {\n      gamesMap[_gameId].drawBets.push(Bet({\n      addr : msg.sender,\n      amount : msg.value\n      }));\n    }\n    else {\n      gamesMap[_gameId].bets[_teamId].push(Bet({\n      addr : msg.sender,\n      amount : msg.value\n      }));\n    }\n  }\n\n\n  /**\nreturns teamId, betAmount, latestIndex - draw bets\n*/\n  function getBetRate(uint _gameId) public view returns (uint[], uint[]) {\n    uint size = gamesMap[_gameId].teamIds.length;\n    uint[] memory resultBetsRes = new uint[](size + 1);\n    uint[] memory teamIdsRes = new uint[](size + 1);\n    teamIdsRes[size] = 0;\n\n    for (uint i = 0; i < size; i++) {\n      teamIdsRes[i] = gamesMap[_gameId].teamIds[i];\n      for (uint j = 0; j < gamesMap[_gameId].bets[teamIdsRes[i]].length; j++) {\n        resultBetsRes[i] += gamesMap[_gameId].bets[teamIdsRes[i]][j].amount;\n      }\n    }\n    if (gamesMap[_gameId].allowDrawBets) {\n      for (i = 0; i < gamesMap[_gameId].drawBets.length; i++) {\n        resultBetsRes[size] += gamesMap[_gameId].drawBets[i].amount;\n      }\n    }\n\n    return (teamIdsRes, resultBetsRes);\n  }\n  /**\n  returns all bids\n   */\n  function getBets(uint _gameId) public view returns (uint[], address[], uint[]) {\n\n    uint betsSize = gamesMap[_gameId].drawBets.length;\n    uint[] memory betsShiftIndex = new uint[](gamesMap[_gameId].teamIds.length);\n\n    for (uint i = 0; i < gamesMap[_gameId].teamIds.length; i++) {\n      betsShiftIndex[i] = gamesMap[_gameId].bets[gamesMap[_gameId].teamIds[i]].length;\n      betsSize += betsShiftIndex[i];\n    }\n    //betsShiftIndex[gamesMap[_gameId].teamIds.length] = betsSize - gamesMap[_gameId].drawBets.length;\n\n    address[] memory bidders = new address[](betsSize);\n    uint[] memory amounts = new uint[](betsSize);\n\n    (bidders, amounts) = fillBets(_gameId, bidders, amounts);\n    return (betsShiftIndex, bidders, amounts);\n  }\n  /**\n  used internally in order to fill bets data\n   */\n  function fillBets(uint _gameId, address[] memory bidders, uint[] memory amounts) view returns (address[], uint[]) {\n    uint counter = 0;\n    for (uint i = 0; i < gamesMap[_gameId].teamIds.length; i++) {\n      for (uint j = 0; j < gamesMap[_gameId].bets[gamesMap[_gameId].teamIds[i]].length; j++) {\n        bidders[counter] = gamesMap[_gameId].bets[gamesMap[_gameId].teamIds[i]][j].addr;\n        amounts[counter] = gamesMap[_gameId].bets[gamesMap[_gameId].teamIds[i]][j].amount;\n\n        counter++;\n      }\n    }\n    for (i = 0; i < gamesMap[_gameId].drawBets.length; i++) {\n      bidders[counter] = gamesMap[_gameId].drawBets[i].addr;\n      amounts[counter] = gamesMap[_gameId].drawBets[i].amount;\n\n      counter++;\n    }\n\n\n    return (bidders, amounts);\n\n  }\n\n  /**\n  returns total bets count\n   */\n  function getBetsCount(uint _gameId) public view returns (uint){\n    uint count = gamesMap[_gameId].drawBets.length;\n\n    for (uint i = 0; i < gamesMap[_gameId].teamIds.length; i++) {\n      count += gamesMap[_gameId].bets[gamesMap[_gameId].teamIds[i]].length;\n    }\n    return count;\n\n  }\n  /**\n\n  add new game\n   */\n\n  function addGame(\n  bytes32 _sportType,\n  uint[] _teamIds,\n  uint _startDate,\n  uint _endDate,\n  bool _allowDraw,\n  uint _minBetAmount,\n  bytes32 _description,\n  bytes32 _externalId\n  ) public isOwner\n  {\n\n    gamesMap[idGen].id = idGen;\n    gamesMap[idGen].teamIds = _teamIds;\n    gamesMap[idGen].startDate = _startDate;\n    gamesMap[idGen].endDate = _endDate;\n    gamesMap[idGen].description = _description;\n    gamesMap[idGen].sportType = _sportType;\n    gamesMap[idGen].minBetAmount = _minBetAmount;\n    gamesMap[idGen].allowDrawBets = _allowDraw;\n    gamesMap[idGen].externalId = _externalId;\n\n    gameIds.push(idGen);\n    idGen++;\n\n  }\n\n\n  /**\n   used by clients in order to iterate existing games\n   */\n\n  function iterateGames(uint _startIndex, bytes32 _filterSportType, uint _filterStartDateBefore, bool _allowDraw) public view returns (\n  uint[],\n  uint[],\n  bytes32[],\n  bytes32[]\n  ){\n\n    uint j = 0;\n    for (uint i = _startIndex; i < gameIds.length; i++) {\n      if (j == 10) {\n        break;\n      }\n      Game storage game = gamesMap[gameIds[i]];\n      if (game.startDate <= _filterStartDateBefore\n      && _filterSportType == game.sportType\n      && _allowDraw == game.allowDrawBets) {\n        j++;\n      }\n    }\n    uint size = j;\n    j = 0;\n\n    uint[] memory ids = new uint[](size);\n    uint[]memory startDates = new uint[](size);\n    bytes32[] memory descr = new bytes32[](size);\n    bytes32[] memory exId = new bytes32[](size);\n\n    for (i = _startIndex; i < gameIds.length; i++) {\n      if (j == size) {\n        break;\n      }\n      game = gamesMap[gameIds[i]];\n      if (game.startDate <= _filterStartDateBefore\n      && _filterSportType == game.sportType\n      && _allowDraw == game.allowDrawBets) {\n        ids[j] = game.id;\n        startDates[j] = game.startDate;\n        descr[j] = game.description;\n        exId[j] = game.externalId;\n        j++;\n      }\n    }\n\n\n    return (ids, startDates, descr, exId);\n\n  }\n\n  /**\n  returns additional details about game\n   */\n\n  function getGameDetails(uint _id) public view returns (\n  uint[] teamIds_,\n\n  bool payoutLock_,\n  bool wasRefund_,\n\n  uint endDate_,\n  uint minBetAmount_,\n\n  bool allowDrawBets_\n  ){\n    teamIds_ = gamesMap[_id].teamIds;\n\n    payoutLock_ = gamesMap[_id].payoutLock;\n    wasRefund_ = gamesMap[_id].wasRefund;\n\n    endDate_ = gamesMap[_id].endDate;\n    minBetAmount_ = gamesMap[_id].minBetAmount;\n\n    allowDrawBets_ = gamesMap[_id].allowDrawBets;\n\n  }\n\n  function getGamesLen() public view returns (uint){\n    return gameIds.length;\n\n  }\n\n  /**\n  delete game and it makes sure that payments were done\n   */\n  function deleteGame(uint _id) public isOwner {\n    require(gamesMap[_id].payoutLock || gamesMap[_id].wasRefund);\n    delete gamesMap[_id];\n    for (uint i = 0; i < gameIds.length; i++) {\n      if (gameIds[i] == _id) {\n        gameIds[i] = gameIds[gameIds.length - 1];\n        gameIds.length--;\n        break;\n      }\n    }\n\n  }\n  /**\n  In case game canceled, it makes sure that payments were NOT done before\n  */\n  function refund(uint _id) public isOwner {\n    require(!gamesMap[_id].wasRefund && !gamesMap[_id].payoutLock);\n    gamesMap[_id].wasRefund = true;\n    for (uint i = 0; i < gamesMap[_id].drawBets.length; i++) {\n      gamesMap[_id].drawBets[i].addr.transfer(gamesMap[_id].drawBets[i].amount);\n    }\n    for (i = 0; i < gamesMap[_id].teamIds.length; i++) {\n      uint teamI = gamesMap[_id].teamIds[i];\n      for (uint j = 0; j < gamesMap[_id].teamIds.length; j++) {\n        gamesMap[_id].bets[teamI][j].addr.transfer(gamesMap[_id].bets[teamI][j].amount);\n      }\n    }\n\n\n  }\n\n\n}\n",
  "sourcePath": "/home/v/WebstormProjects/bets/contracts/SportBets.sol",
  "compiler": {
    "name": "solc",
    "version": "0.4.18+commit.9cf6e910.Emscripten.clang"
  },
  "schemaVersion": "1.0.1",
  "updatedAt": "2017-11-23T20:44:57.247Z"
}