{
  "contractName": "TestContract",
  "abi": [
    {
      "constant": false,
      "inputs": [],
      "name": "getLen",
      "outputs": [
        {
          "name": "",
          "type": "uint256"
        }
      ],
      "payable": false,
      "stateMutability": "nonpayable",
      "type": "function"
    },
    {
      "constant": false,
      "inputs": [
        {
          "name": "num",
          "type": "uint256"
        }
      ],
      "name": "setT1",
      "outputs": [
        {
          "name": "result",
          "type": "uint256"
        }
      ],
      "payable": false,
      "stateMutability": "nonpayable",
      "type": "function"
    },
    {
      "constant": false,
      "inputs": [
        {
          "name": "index",
          "type": "uint256"
        }
      ],
      "name": "getS",
      "outputs": [
        {
          "name": "",
          "type": "uint256"
        }
      ],
      "payable": false,
      "stateMutability": "nonpayable",
      "type": "function"
    }
  ],
  "bytecode": "0x6060604052341561000f57600080fd5b6101f28061001e6000396000f300606060405260043610610057576000357c0100000000000000000000000000000000000000000000000000000000900463ffffffff1680634a90be571461005c578063816898ff14610085578063d40d7b60146100bc575b600080fd5b341561006757600080fd5b61006f6100f3565b6040518082815260200191505060405180910390f35b341561009057600080fd5b6100a660048080359060200190919050506100ff565b6040518082815260200191505060405180910390f35b34156100c757600080fd5b6100dd600480803590602001909190505061014d565b6040518082815260200191505060405180910390f35b60008080549050905090565b6000808281600001819055506000805480600101828161011f9190610173565b9160005260206000209001600083909190915060008201548160000155505050600080549050915050919050565b6000808281548110151561015d57fe5b9060005260206000209001600001549050919050565b81548183558181151161019a57818360005260206000209182019101610199919061019f565b5b505050565b6101c391905b808211156101bf57600080820160009055506001016101a5565b5090565b905600a165627a7a72305820c42de1b88ede6351cb8ac1b3e3a5d23444016f9f29d8f56cc75f41707da347950029",
  "source": "pragma solidity ^0.4.0;\n\n\ncontract TestContract {\n  struct TT {\n  uint number;\n  }\n\n  TT  [] arr;\n\n  function setT1(uint num) returns (uint result){\n    TT t;\n    t.number = num;\n\n    arr.push(t);\n    result = arr.length;\n\n  }\n\n  function getLen()returns (uint){\n    return arr.length;\n\n  }\n\n  function getS(uint index) public returns (uint){\n    return arr[index].number;\n  }\n\n\n}\n",
  "sourcePath": "/home/v/WebstormProjects/bets/contracts/TestContract.sol",
  "compiler": {
    "name": "solc",
    "version": "0.4.18+commit.9cf6e910.Emscripten.clang"
  },
  "schemaVersion": "1.0.1",
  "updatedAt": "2017-11-15T08:46:54.698Z"
}